:020000040800F2
:1000000000000120C14C0008E14B0008E34B000850
:10001000E54B0008E74B0008E94B00080000000032
:10002000000000000000000000000000EB4B000892
:10003000ED4B000800000000EF4B0008F14B0008FA
:10004000114D0008114D0008114D0008114D000818
:10005000114D0008114D0008114D0008114D000808
:10006000114D0008114D0008FD4B0008194C000807
:10007000294C0008394C0008114D0008114D0008AA
:10008000114D0008114D0008114D0008114D0008D8
:10009000114D0008114D0008114D0008114D0008C8
:1000A000114D0008114D0008114D0008114D0008B8
:1000B000114D00080000000000000000114D000874
:1000C000114D00080000000000000000114D000864
:1000D00000000000114D0008114D00080000000054
:1000E000114D0008114D0008000000000000000044
:1000F0000000000000000000000000000000000000
:10010000000000000000000000000000114D000889
:100110000000000000000000114D0008494C0008DC
:10012000594C0008694C0008114D0008114D000899
:10013000114D000800000000000000000000000059
:10014000114D0008114D0008114D0008114D000817
:10015000114D0008114D0008114D0008114D000807
:10016000114D0008114D0008114D0008000000005D
:10017000114D0008114D00080000000000000000B3
:10018000114D0008114D0008114D0008000000003D
:1001900010B5054C237833B9044B13B10448AFF3C1
:1001A00000800123237010BD8001002000000000AA
:1001B0005C4D000808B5034B1BB103490348AFF37E
:1001C000008008BD00000000840100205C4D000894
:1001D00081F0004102E000BF83F0004330B54FEAF8
:1001E00041044FEA430594EA050F08BF90EA020F65
:1001F0001FBF54EA000C55EA020C7FEA645C7FEAF8
:10020000655C00F0E2804FEA5454D4EB5555B8BF1A
:100210006D420CDD2C4480EA020281EA030382EA8B
:10022000000083EA010180EA020281EA0303362D1D
:1002300088BF30BD11F0004F4FEA01314FF4801CF0
:100240004CEA113102D0404261EB410113F0004F02
:100250004FEA03334CEA133302D0524263EB4303B9
:1002600094EA050F00F0A780A4F10104D5F1200E57
:100270000DDB02FA0EFC22FA05F2801841F10001B2
:1002800003FA0EF2801843FA05F359410EE0A5F186
:1002900020050EF1200E012A03FA0EFC28BF4CF0B7
:1002A000020C43FA05F3C01851EBE37101F000456D
:1002B00007D54FF0000EDCF1000C7EEB00006EEB7A
:1002C0000101B1F5801F1BD3B1F5001F0CD3490804
:1002D0005FEA30004FEA3C0C04F101044FEA44525B
:1002E00012F5800F80F09A80BCF1004F08BF5FEAE2
:1002F000500C50F1000041EB045141EA050130BDC2
:100300005FEA4C0C404141EB010111F4801FA4F164
:100310000104E9D191F0000F04BF01460020B1FAB9
:1003200081F308BF2033A3F10B03B3F120020CDAF1
:100330000C3208DD02F1140CC2F10C0201FA0CF0CF
:1003400021FA02F10CE002F11402D8BFC2F1200C34
:1003500001FA02F120FA0CFCDCBF41EA0C019040EA
:10036000E41AA2BF01EB0451294330BD6FEA040433
:100370001F3C1CDA0C340EDC04F11404C4F120021E
:1003800020FA04F001FA02F340EA030021FA04F330
:1003900045EA030130BDC4F10C04C4F1200220FA87
:1003A00002F001FA04F340EA0300294630BD21FAC5
:1003B00004F0294630BD94F0000F83F4801306BF8B
:1003C00081F480110134013D4EE77FEA645C18BF7F
:1003D0007FEA655C29D094EA050F08BF90EA020F16
:1003E00005D054EA000C04BF1946104630BD91EA0E
:1003F000030F1EBF0021002030BD5FEA545C05D111
:100400004000494128BF41F0004130BD14F580044F
:100410003CBF01F5801130BD01F0004545F0FE41C3
:1004200041F470014FF0000030BD7FEA645C1ABFF8
:10043000194610467FEA655C1CBF0B46024650EA2F
:10044000013406BF52EA033591EA030F41F400215B
:1004500030BD00BF90F0000F04BF0021704730B5E1
:100460004FF4806404F132044FF000054FF00001B6
:1004700050E700BF90F0000F04BF0021704730B577
:100480004FF4806404F1320410F0004548BF40424C
:100490004FF000013EE700BF42004FEAE2014FEAA1
:1004A00031014FEA02701FBF12F07F4393F07F4F7C
:1004B00081F06051704732F07F4208BF704793F07F
:1004C0007F4F04BF41F40021704730B54FF4607492
:1004D00001F0004521F000411CE700BF50EA010295
:1004E00008BF704730B54FF000050AE050EA01023E
:1004F00008BF704730B511F0004502D5404261EBAE
:1005000041014FF4806404F132045FEA915C3FF4EE
:10051000D8AE4FF003025FEADC0C18BF03325FEA8B
:10052000DC0C18BF033202EBDC02C2F1200300FA3C
:1005300003FC20FA02F001FA03FE40EA0E0021FA61
:1005400002F11444BDE600BF70B54FF0FF0C4CF44F
:10055000E06C1CEA11541DBF1CEA135594EA0C0F01
:1005600095EA0C0F00F0DEF82C4481EA030621EA3C
:100570004C5123EA4C5350EA013518BF52EA033577
:1005800041F4801143F4801338D0A0FB02CE4FF029
:100590000005E1FB02E506F00042E0FB03E54FF059
:1005A0000006E1FB03569CF0000F18BF4EF0010E51
:1005B000A4F1FF04B6F5007F64F5407404D25FEA4D
:1005C0004E0E6D4146EB060642EAC62141EA555100
:1005D0004FEAC52040EA5E504FEACE2EB4F1FD0C42
:1005E00088BFBCF5E06F1ED8BEF1004F08BF5FEAC0
:1005F000500E50F1000041EB045170BD06F0004672
:1006000046EA010140EA020081EA0301B4EB5C041E
:10061000C2BFD4EB0C0541EA045170BD41F4801116
:100620004FF0000E013C00F3AB8014F1360FDEBF3B
:10063000002001F0004170BDC4F10004203C35DA17
:100640000C341BDC04F11404C4F1200500FA05F39A
:1006500020FA04F001FA05F240EA020001F000423B
:1006600021F0004110EBD37021FA04F642EB0601B1
:100670005EEA430E08BF20EAD37070BDC4F10C04DB
:10068000C4F1200500FA04F320FA05F001FA04F29F
:1006900040EA020001F0004110EBD37041F100018B
:1006A0005EEA430E08BF20EAD37070BDC4F1200596
:1006B00000FA05F24EEA020E20FA04F301FA05F2FE
:1006C00043EA020321FA04F001F0004121FA04F2A6
:1006D00020EA020000EBD3705EEA430E08BF20EA76
:1006E000D37070BD94F0000F0FD101F000464000B0
:1006F00041EB010111F4801F08BF013CF7D041EA32
:10070000060195F0000F18BF704703F00046520035
:1007100043EB030313F4801F08BF013DF7D043EA06
:100720000603704794EA0C0F0CEA135518BF95EABC
:100730000C0F0CD050EA410618BF52EA4306D1D143
:1007400081EA030101F000414FF0000070BD50EA62
:10075000410606BF1046194652EA430619D094EAEC
:100760000C0F02D150EA013613D195EA0C0F05D1D6
:1007700052EA03361CBF104619460AD181EA03012A
:1007800001F0004141F0FE4141F470014FF00000E2
:1007900070BD41F0FE4141F4780170BD70B54FF07D
:1007A000FF0C4CF4E06C1CEA11541DBF1CEA1355FD
:1007B00094EA0C0F95EA0C0F00F0A7F8A4EB0504DF
:1007C00081EA030E52EA03354FEA013100F08880D6
:1007D0004FEA03334FF0805545EA131343EA12639F
:1007E0004FEA022245EA111545EA10654FEA002654
:1007F0000EF000419D4208BF964244F1FD0404F50D
:10080000407402D25B084FEA3202B61A65EB030568
:100810005B084FEA32024FF480104FF4002CB6EB25
:10082000020E75EB030E22BFB61A754640EA0C00A5
:100830005B084FEA3202B6EB020E75EB030E22BFE5
:10084000B61A754640EA5C005B084FEA3202B6EB26
:10085000020E75EB030E22BFB61A754640EA9C00E5
:100860005B084FEA3202B6EB020E75EB030E22BFB5
:10087000B61A754640EADC0055EA060E18D04FEA73
:10088000051545EA16754FEA06164FEAC30343EA13
:1008900052734FEAC2025FEA1C1CC0D111F4801FE0
:1008A0000BD141EA00014FF000004FF0004CB6E7D9
:1008B00011F4801F04BF01430020B4F1FD0C88BF78
:1008C000BCF5E06F3FF6AFAEB5EB030C04BFB6EB83
:1008D000020C5FEA500C50F1000041EB045170BD76
:1008E0000EF0004E4EEA113114EB5C04C2BFD4EBA3
:1008F0000C0541EA045170BD41F480114FF0000E27
:10090000013C90E645EA060E8DE60CEA135594EAA2
:100910000C0F08BF95EA0C0F3FF43BAF94EA0C0FA5
:100920000AD150EA01347FF434AF95EA0C0F7FF41A
:1009300025AF104619462CE795EA0C0F06D152EA6E
:1009400003353FF4FDAE1046194622E750EA410652
:1009500018BF52EA43067FF4C5AE50EA41047FF463
:100960000DAF52EA43057FF4EBAE12E74FF0FF3CC8
:1009700006E000BF4FF0010C02E000BF4FF0010C99
:100980004DF804CD4FEA410C7FEA6C5C4FEA430C12
:1009900018BF7FEA6C5C1BD001B050EA410C0CBF61
:1009A00052EA430C91EA030F02BF90EA020F0020C3
:1009B000704710F1000F91EA030F58BF994208BF2A
:1009C00090422CBFD8176FEAE37040F001007047E7
:1009D0004FEA410C7FEA6C5C02D150EA013C07D13E
:1009E0004FEA430C7FEA6C5CD6D152EA033CD3D089
:1009F0005DF8040B704700BF8446104662468C4683
:100A00001946634600E000BF01B5FFF7B7FF0028B5
:100A100048BF10F1000F01BD4DF808EDFFF7F4FFDE
:100A20000CBF012000205DF808FB00BF4DF808ED69
:100A3000FFF7EAFF34BF012000205DF808FB00BF8C
:100A40004DF808EDFFF7E0FF94BF012000205DF8AE
:100A500008FB00BF4DF808EDFFF7CEFF94BF012063
:100A600000205DF808FB00BF4DF808EDFFF7C4FF5C
:100A700034BF012000205DF808FB00BF4FEA4102AF
:100A8000B2F1E04324BFB3F5001CDCF1FE5C0DD9EC
:100A900001F0004C4FEAC0024CEA5070B2F1004F36
:100AA00040EB830008BF20F00100704711F0804F39
:100AB00021D113F13872BCBF01F00040704741F4FE
:100AC00080114FEA5252C2F11802C2F1200C10FA02
:100AD0000CF320FA02F018BF40F001004FEAC123E6
:100AE0004FEAD32303FA0CFC40EA0C0023FA02F38A
:100AF0004FEA4303CCE77FEA625307D150EA013360
:100B00001EBF4FF0FE4040F44000704701F000402F
:100B100040F0FE4040F40000704700BF10B50446AE
:100B2000094B1868094BA3FB0030800900F08AFBD1
:100B300008B1012010BD002221464FF0FF3000F027
:100B400041FB0020F6E700BF78010020D34D621082
:100B500010B5032000F024FB0020FFF7DFFF10B1E9
:100B60000124204610BD044603F06EFEF9E70000A4
:100B7000024A136801331360704700BFF00700207A
:100B8000014B1868704700BFF007002030B583B0F4
:100B900000230193002800F0DE800446436D03B378
:100BA00023689A6812F0005F05D09A6822F020420C
:100BB00022F03F029A602268936813F0805F1DD193
:100BC000936823F0104323F03F0343F08053936076
:100BD000624B1B689B09624AA2FB03239B0901939A
:100BE00009E003F079FE0023A36584F85030D7E7CD
:100BF000019B013B0193019B002BF9D123689A686B
:100C000012F0805F78D1626D42F010026265A26DD1
:100C100042F00102A26501209A6812F0040F6DD023
:100C20000121626D12F0100F40F08E80002940F01B
:100C30008B80626D22F4817242F0020262659B68D1
:100C400013F0010F0BD1474B9B6813F0010F06D136
:100C5000636845498A6822F47C1213438B60627E84
:100C6000636B43EA4233E2681343A268134394F888
:100C7000202043EA0243012A42D0A26A22B102F4B0
:100C80007072E16A0A4313432168CD68374A2A40EB
:100C90001343CB6023689A6812F0040F35D001210A
:100CA0009A6812F0080F32D00122B1B9AAB9217E98
:100CB00094F83020520042EA8131DA6822F480420E
:100CC00022F002020A43DA6094F83830012B20D077
:100CD0002268136923F0010313612369012B2AD0D1
:100CE0002268136B23F00F031363636D23F0030378
:100CF00043F0010363652CE000208DE7002190E7BD
:100D0000626A013A43EA4243B7E70021C8E700229A
:100D1000CBE721680B6923F4FF6323F00403E26B44
:100D2000256C2A43656C2A43A56C2A43134343F080
:100D300001030B61D1E721680B6B23F00F03E2691C
:100D4000013A13430B63D0E7636D43F0100363650F
:100D5000012003B030BD0120FBE700BF7801002077
:100D6000632D3E05000004500003045007C0F0FF4F
:100D7000F0B482B00022019290F85020012A00F0D5
:100D800008820346012280F850200268926812F01F
:100D9000040F0AD0426D42F0200242650120002279
:100DA00083F8502002B0F0BC70474A68052A09D881
:100DB000023A032A00F28D80DFE802F00281848784
:100DC0000C224A601E684D680C6830362A0A920070
:100DD00002F00C02B05805F01F051F27AF4020EAB3
:100DE0000700C4F38464AC402043B0501A68906894
:100DF00010F0040F70D00120946814F0080F6DD02B
:100E0000012450BB4CBB0E688C681432700E8000FD
:100E100000F004001558C6F304560727B74025EA2A
:100E20000705B4402C43145048691C68E268C2F3BB
:100E3000C102520000FA02F20D69042D50D00E6872
:100E4000603454F82570B748384006F0F84632430D
:100E5000104340F0004044F825001868826812F002
:100E6000010F15D10A68CD68D0F8B040C2F3120660
:100E700024EA060405F01806AB4DF5402A40C2F3FB
:100E800012022243C0F8B020C868A84A90427AD023
:100E90000A68A7490A4200F07881A649896801F0EA
:100EA000E074A548824200F00C81A448824200F020
:100EB0002E81A348824200F0558100206FE7122264
:100EC0004A607FE718224A607CE74FF480724A60EC
:100ED00078E706224A6075E700208DE7002490E756
:100EE000206EC0F384650A68C2F312065EBBC2F3CB
:100EF000846295422CD01C68606EC0F384650A68D9
:100F0000C2F3120646BBC2F38462954229D01C6824
:100F1000A06EC0F384650A68C2F312062EBBC2F34A
:100F20008462954226D01C68E06EC0F384650A682E
:100F3000C2F3120616BBC2F3846295428DD120F033
:100F40000040E06689E792FAA2F2B2FA82F2D0E7B4
:100F500020F000402066CEE792FAA2F2B2FA82F2C6
:100F6000D3E720F000406066D1E792FAA2F2B2FA2D
:100F700082F2D6E720F00040A066D4E792FAA2F20F
:100F8000B2FA82F2D9E71D680A68C2F3120696BB6C
:100F9000900E013000F01F0009288CBF00200120B6
:100FA000002852D09EBB940E0134A40604F0F844ED
:100FB000B6BB900E013000F01F070120B84004437B
:100FC000C6BB920E013202F01F0202EB4202120572
:100FD00022438C681435500E800000F004002E5817
:100FE000C2F304520727974026EA070604FA02F2E2
:100FF00032432A504CE792FAA2F0B0FA80F0013066
:1010000000F01F0009288CBF00200120C8E792FAD9
:10101000A2F4B4FA84F40134A40604F0F844C7E757
:1010200092FAA2F0B0FA80F0013000F01F07012020
:10103000B840C4E792FAA2F2B2FA82F2013202F0A8
:101040001F0202EB42021205C2E7CEB9940E013430
:10105000A40604F0F844E6B9900E013000F01F0732
:101060000120B8400443F6B9900E013000F01F0093
:1010700000EB40021E3A120542F000722243A8E73C
:1010800092FAA2F4B4FA84F40134A40604F0F84409
:10109000E1E792FAA2F0B0FA80F0013000F01F0709
:1010A0000120B840DEE792FAA2F0B0FA80F00130F9
:1010B00000F01F0000EB40021E3A120542F00072E1
:1010C000DCE711F4000F7FF4F0AE19681D4A91427D
:1010D00001D0002063E644F400021648816821F044
:1010E000E0710A438260184A126892091749A1FB0D
:1010F0000212920902EB42029100019102E0019A70
:10110000013A0192019A002AF9D1002047E611F034
:10111000807F7FF4CEAE19680A4A914218D0002031
:101120003DE600BF00F0FF03FFFF070000007F4027
:101130000000088000030450000052C7000084CB68
:10114000010000800000045078010020632D3E055E
:1011500044F080721048816821F0E0710A43826097
:1011600000201CE611F4800F11D119680B4A91423E
:1011700001D0002013E644F480020748816821F082
:10118000E0710A438260002009E6002007E60020A3
:1011900005E6022006E600BF0003045000000450EC
:1011A000074AD36823F4E0631B041B0C000200F41D
:1011B000E060184340F0BF6040F40030D0607047FA
:1011C00000ED00E030B4174BDB68C3F30223C3F13A
:1011D0000704042C28BF04241D1D062D18D9033B29
:1011E0004FF0FF3505FA04F421EA0401994005FAAD
:1011F00003F322EA0303194300280BDB0901C9B2F8
:1012000000F1604000F5614080F8001330BC704789
:101210000023E5E700F00F000901C9B2024B1954A1
:10122000F4E700BF00ED00E014ED00E000F01F0265
:10123000400901239340024A42F82030704700BF22
:1012400000E100E00138B0F1807F0AD2064B58601F
:10125000064AF02182F823100020986007221A60C5
:1012600070470120704700BF10E000E000ED00E093
:10127000042805D0054A136823F00403136070475F
:10128000024A136843F004031360704710E000E063
:10129000704708B5FFF7FCFF08BD0000002869D0C3
:1012A00010B403460168344A914245D8334A0A448F
:1012B0003349A1FB0212120992004264314A0264CE
:1012C000022283F825201868016821F4FF4121F0EB
:1012D00070019A68DC6822431C6922435C692243DE
:1012E0009C692243DC6922431C6A22430A43026050
:1012F0009A68B2F5804F15D0196C224A914226D0D7
:10130000214A1168586C00F01C040F20A04021EA0B
:1013100000011160116858685C6C04F01C04A04066
:10132000014311600020D863012283F8252083F84F
:1013300024005DF8044B7047144A0A441049A1FB8D
:101340000212120992004264114A0264B8E7A832FC
:101350001168586C00F01C040F20A04021EA000125
:101360001160116858685C6C04F01C04A0400143D3
:101370001160D7E70120704707040240F8FFFDBF66
:10138000CDCCCCCC00000240A8040240F8FBFDBF4D
:101390000004024038B5036C196804682568436C82
:1013A00003F01C0304229A400A4215D015F0040FE2
:1013B00012D0236813F0200F03D1236823F0040315
:1013C0002360436C03F01C02016C042393404B60C8
:1013D000036B03B1984738BD02229A400A421CD0E1
:1013E00015F0020F19D0236813F0200F06D12368DF
:1013F00023F00A032360012380F82530436C03F0B7
:101400001C02016C022393404B60002380F82430BF
:10141000C36A002BDFD09847DDE7082202FA03F306
:101420000B42D8D015F0080FD5D0236823F00E0357
:101430002360436C03F01C03016C012202FA03F3E6
:101440004B60C26380F82520002380F82430436B72
:10145000002BC0D09847BEE710B4054C616941F03D
:1014600001016161026043605DF8044B704700BF99
:1014700000200240084A536943F48023536172B646
:10148000402351F8042B40F8042B013B13F0FF03D9
:10149000F7D162B6704700BF00200240094B5B697C
:1014A000002B01DB00207047064B074A9A6002F1CF
:1014B00088329A605B69002B01DB002070470120B5
:1014C000704700BF002002402301674538B504463D
:1014D000FFF756FB05461F4B1B6913F4803F09D0ED
:1014E000B4F1FF3FF7D0FFF74BFB401BA042F2D314
:1014F000032029E0174A136923F07F4323F47D0377
:1015000023F4705323F00503926902F00042134361
:1015100011D011494A681A434A6013F0404203D07F
:101520000C49886902438A6133F040430DD0094A6F
:101530001361012008E0074B1B6913F0010F06D06F
:10154000044B01221A61002038BD0120FCE7002075
:10155000FAE700BF00200240000000202DE9F04122
:10156000284C2478012C4AD0984617460D4604464C
:10157000244B01221A704CF25030FFF7A7FF0646A9
:1015800008BB204B00225A601F4B1B6813F4806F6E
:101590001FD01D4A136823F480631360194B022285
:1015A0001A77D4B1631E012B1ED900244CF250309F
:1015B000FFF78CFF064624B1134A536923EA04045B
:1015C000546100F047F80F4B00221A703046BDE816
:1015D000F0810C4B00221A77E3E73A46434628464F
:1015E000FFF73AFF0124E1E739462846FFF742FFBB
:1015F000022C01D00024D9E74FF48024D6E702263C
:10160000E4E700BF000000200020024010F0010FBE
:1016100004D0054A536943F004035361024A5369F5
:1016200043F480335361704700200240084B5A69ED
:1016300022F4FF62C00000F4FF6002435A615A695D
:1016400042F002025A615A6942F480325A6170478C
:1016500000200240144B1B7FDBB2012B01D0032B77
:101660000CD1124A116841F400611160116821F433
:1016700000611160116841F400711160023BDBB23E
:10168000012B03D9084B00221A777047074B1A68C1
:1016900042F480521A601A6822F480521A601A6862
:1016A00042F480621A60EDE7000000200020024052
:1016B000F8B53B4B1B78012B6FD00E460446384BD8
:1016C00001221A704CF25030FFF700FF0746002845
:1016D0005ED1334B00225A60324B1B6813F4007FFB
:1016E00033D0304B1A6822F400721A601B6813F46E
:1016F000806F26D02B4A136823F480631360284B35
:1017000003221A772368012B31D04FF0FF33336067
:10171000A568A368E2681344AB4237D961682846DC
:10172000FFF784FF4CF25030FFF7D0FE1D4A53699B
:1017300023F4FF6323F002035361074628BB0135FE
:10174000E7E7174B01221A77DCE7164B1B6813F407
:10175000806F08D0134A136823F480631360104B22
:1017600002221A77CEE70E4B00221A77CAE760688A
:10177000FFF74CFF4CF25030FFF7A8FE0746094A2E
:10178000536923F00403536100E03560FFF762FF03
:10179000034B00221A703846F8BD0227FBE700BF52
:1017A0000000002000200240F0B482B000236FE06F
:1017B000866805EA060CCE68BE4046EA0C068660DE
:1017C000466826EA04044E68C6F300169E40264387
:1017D0004660C46825408C68BC402C43C4604C689B
:1017E00014F0805F53D04C4C256E45F00105256602
:1017F000246E04F001040194019C9D08AE1C474C2A
:1018000054F8267003F00304A6000F24B44027EA1E
:101810000407B0F1904F77D0414CA04276D004F548
:101820008064A0426ED00724B4403C4302353B4E56
:1018300046F825403B4C2568D44304EA05064F682A
:1018400017F4803F01D042EA0506364D2E606D68E0
:1018500004EA05064F6817F4003F01D042EA050686
:10186000304D6E60AD6804EA05064F6817F4801FBE
:1018700001D042EA05062B4DAE60ED682C404E6863
:1018800016F4001F01D042EA0504264AD460013351
:101890000A6832FA03F43BD001249C402240F6D07F
:1018A0004D68022D01D0122D10D1DE08083650F8F7
:1018B00026C003F00705AF000F25BD402CEA050C3C
:1018C0000D69BD4045EA0C0540F8265006685F00EA
:1018D0000325BD40ED4305EA060C4E6806F00306FD
:1018E000BE4046EA0C0606604E6806F1FF3CBCF1BD
:1018F000010F7FF65DAF112E3FF45AAF122E7FF429
:1019000068AF55E702248FE700248DE701248BE7B9
:1019100002B0F0BC704700BF001002400000014060
:1019200000040048000401400AB9816270478161E7
:101930007047704708B5054B5B69034200D108BD8D
:10194000024B5861FFF7F5FFF9E700BF00040140C3
:1019500040B338B5044603684CF6CC421A600368BD
:1019600045F255521A60036842685A6003688268FB
:101970009A60FFF705F905462368DA6832B1FFF788
:10198000FFF8401B3028F7D9032038BD1969E268F9
:10199000914202D01A610020F7E74AF6AA221A60A3
:1019A0000020F2E701207047024B186800F4C06085
:1019B000704700BF00700040B0F5007F0FD01F4B94
:1019C0001B6803F4C063B3F5806F34D01B4A1368FF
:1019D00023F4C06343F48063136000207047174B07
:1019E0001B6803F4C063B3F5007F22D0134A136869
:1019F00023F4C06343F400731360114B1A6832235D
:101A000003FB02F30F4AA2FB03239B0C013300E00C
:101A1000013B0A4A526912F4806F01D0002BF7D1C2
:101A2000064B5B6913F4806F01D1002070470320DF
:101A30007047002070470020704700BF00700040D2
:101A40007801002083DE1B4330B583B00546204B70
:101A50009B6D13F0805F0BD0FFF7A6FFB0F5007F02
:101A600017D0802D1FD82DD0702D2DD000211BE038
:101A7000174CA36D43F08053A365A36D03F080530F
:101A80000193019BFFF790FFA36D23F08053A365A3
:101A9000E4E7802D03D9A02D03D9022104E0002121
:101AA00002E0012100E003210A4A136823F0070342
:101AB0000B431360136803F007038B4206D0012029
:101AC00003B030BD0221EFE70121EDE70020F7E789
:101AD0000010024000200240314A9368D26802F0B0
:101AE000030213F00C030AD00C2B06D0042B1FD0DA
:101AF000082B20D00020014610E0012AF6D1284A08
:101B0000126812F0080F0CD1254AD2F89420C2F3C3
:101B10000322244951F8221043B100200C2B0DD090
:101B200070471F4A1268C2F30312F2E70846F5E74E
:101B30001D480021F2E71D480021EFE7184BDA6845
:101B400002F00302DB68C3F302130133022A0AD056
:101B5000032A1AD0B1FBF3F3114AD068C0F3062070
:101B600000FB03F008E01048B0FBF3F30C4AD06828
:101B7000C0F3062000FB03F0094BDB68C3F34163AD
:101B800001335B00B0FBF3F0CAE70848B0FBF3F3A6
:101B9000034AD068C0F3062000FB03F0ECE700BF67
:101BA00000100240784D00080024F40000127A0072
:101BB000002800F0C182F0B583B00446AC4B9D68AC
:101BC00005F00C05DE6806F00306036813F0100F3D
:101BD0005DD0E5B10C2D18D0A369002B00F0B780C3
:101BE000A34A136843F001031360FEF7C9FF0746D9
:101BF0009F4B1B6813F0020F40F09680FEF7C0FF6A
:101C0000C01B0228F4D90323A2E2012EE4D1984B91
:101C10001B6813F0020F03D0A369002B00F08F8222
:101C2000206A934B1B6813F0080F5DD0904B1B6824
:101C300003F0F00398425ED9FFF706FF002840F05A
:101C400080828B4B1A6842F008021A601A6822F0F0
:101C5000F002216A0A431A605A6822F47F42E1695D
:101C600042EA01225A60FFF737FF814B9B68C3F3BA
:101C70000313804AD35C03F01F03D8407E4B1860E7
:101C80000020FEF74BFF0346002840F061822368E6
:101C900013F0010F7AD0082D6FD00C2D6BD0636834
:101CA000B3F5803F00F09180B3F5A02F00F0938052
:101CB0006F4B1A6822F480321A601A6822F480226C
:101CC0001A606368002B00F09380FEF759FF074607
:101CD000674B1B6813F4003F58D1FEF751FFC01B40
:101CE0006428F5D9032333E2614BD3F894301B0900
:101CF00003F0F0039EE75E4B1A6842F008021A6098
:101D00001A6822F0F002216A0A431A605A6822F423
:101D10007F42E16942EA01225A60206AFFF794FE9D
:101D20000028A0D0012313E2514B1A6842F00802A8
:101D30001A601A6822F0F002216A0A431A605A688F
:101D400022F47F42E16942EA01225A609FE7484A51
:101D5000136823F001031360FEF712FF0746444B9C
:101D60001B6813F0020F92D0FEF70AFFC01B022877
:101D7000F5D90323ECE1032E91D13D4B1B6813F4FD
:101D8000003F03D06368002B00F0DD81236813F06F
:101D9000020F4FD0042D3CD00C2D38D0E368002B1F
:101DA00075D0334A136843F480731360FEF7E8FE7E
:101DB00006462F4B1B6813F4806F5FD1FEF7E0FEE1
:101DC000801B0228F5D90323C2E1294A136843F492
:101DD0008033136075E703F18043A3F53C331A6841
:101DE00042F480221A601A6842F480321A6068E76E
:101DF000FEF7C6FE07461E4B1B6813F4003FC5D016
:101E0000FEF7BEFEC01B6428F5D90323A0E1022E15
:101E1000C4D1174B1B6813F4806F03D0E368002B09
:101E200000F09381124A536823F0F853216943EA82
:101E300001635360236813F0080F53D06369002BCC
:101E400039D00B4AD2F8943043F00103C2F89430F1
:101E5000FEF796FE0646064BD3F8943013F0020FB9
:101E600040D1FEF78DFE801B0228F4D903236FE1D9
:101E700000100240A84D000878010020B74A5368BE
:101E800023F0F853216943EA01635360D2E7B34A70
:101E9000136823F480731360FEF772FE0646AF4B9F
:101EA0001B6813F4806FC5D0FEF76AFE801B022802
:101EB000F5D903234CE1A94AD2F8943023F0010369
:101EC000C2F89430FEF75CFE0646A44BD3F894307B
:101ED00013F0020F06D0FEF753FE801B0228F4D940
:101EE000032335E1236813F0040F7AD09B4B9B6DDD
:101EF00013F0805F0BD1994B9A6D42F080529A6536
:101F00009B6D03F080530193019B012600E00026A6
:101F1000934B1B6813F4807F26D0A368012B37D026
:101F2000052B3DD08D4BD3F8902022F00102C3F851
:101F30009020D3F8902022F00402C3F89020A368E8
:101F4000002B3BD0FEF71CFE0746844BD3F89030A5
:101F500013F0020F44D1FEF713FEC01B41F2883389
:101F60009842F2D90323F3E07D4A136843F4807367
:101F70001360FEF705FE0746794B1B6813F4807F5C
:101F8000CBD1FEF7FDFDC01B0228F5D90323DFE00E
:101F9000724AD2F8903043F00103C2F89030CEE795
:101FA0006E4BD3F8902042F00402C3F89020D3F88F
:101FB000902042F00102C3F89020C0E7FEF7E0FD58
:101FC0000746664BD3F8903013F0020F08D0FEF7A7
:101FD000D7FDC01B41F288339842F2D90323B7E002
:101FE000E6B9236813F0200F35D0636AE3B15B4A8A
:101FF000D2F8983043F00103C2F89830FEF7C0FDE4
:102000000646564BD3F8983013F0020F23D1FEF753
:10201000B7FD801B0228F4D9032399E04F4A936D42
:1020200023F080539365DCE74C4AD2F8983023F0D4
:102030000103C2F89830FEF7A3FD0646474BD3F8DC
:10204000983013F0020F06D0FEF79AFD801B02288D
:10205000F4D903237CE0A36A002B78D00C2D7AD02E
:10206000022B23D03D4B1A6822F080721A601B6845
:1020700013F0006F04D1394AD36823F00303D3600F
:10208000364AD36823F0887323F48033D360FEF795
:1020900077FD0446314B1B6813F0007F4AD0FEF7F2
:1020A0006FFD001B0228F5D9032351E02B4A13686A
:1020B00023F080731360FEF763FD0546274B1B6812
:1020C00013F0007F06D0FEF75BFD401B0228F5D918
:1020D00003233DE0236B5A1E636B1B0243EA02138A
:1020E000E26A1343E26B5208013A43EA4253226C1C
:1020F0005208013A43EA4263A26B43EAC263174AB9
:10210000D360136843F080731360D36843F0807327
:10211000D360FEF735FD0446104B1B6813F0007FBB
:1021200006D1FEF72DFD001B0228F5D903230FE091
:1021300000230DE000230BE0012318467047012324
:1021400006E0012304E0012302E0012300E0002374
:10215000184603B0F0BD0123FAE700BF00100240AB
:1021600000700040002800F09A8070B504464E4B85
:102170001B6803F007038B420CD24B4A136823F011
:1021800007030B431360136803F007038B4201D06E
:10219000012070BD0D46236813F0010F39D063682C
:1021A000032B09D0022B26D063BB404A126812F0E1
:1021B000020F06D10120ECE73C4A126812F0007FC2
:1021C0006FD03A498A6822F0030213438B60FEF70E
:1021D000D7FC0646354B9B6803F00C036268B3EBF3
:1021E000820F16D0FEF7CCFC801B41F28833984258
:1021F000F0D90320CDE72D4A126812F4003FE0D158
:102200000120C6E7294A126812F4806FD9D1012053
:10221000BFE7236813F0020F06D0244A936823F027
:10222000F003A1680B4393601F4B1B6803F0070387
:10223000AB420CD91C4A136823F007032B431360ED
:10224000136803F00703AB4201D00120A1E7236824
:1022500013F0040F06D0154A936823F4E063E16895
:102260000B439360236813F0080F07D00F4A93685D
:1022700023F46053216943EAC1039360FFF72CFC08
:102280000A4B9B68C3F30313094AD35C03F01F0393
:10229000D840084B18600020FEF740FC79E7012089
:1022A0007047012075E700BF002002400010024087
:1022B000A84D000878010020014B1868704700BF46
:1022C0007801002008B5FFF7F7FF054B9B68C3F3C3
:1022D000C223044AD35C03F01F03D84008BD00BFEB
:1022E00000100240B84D0008F8B5594BDB6813F0F8
:1022F000030F18D0564BDB6803F0030302689342C8
:1023000002D001252846F8BD002A00F09F80504BDE
:10231000DB68C3F3021301334268934201D0012505
:10232000F0E700251AE00368022B58D0032B5DD09C
:10233000012B01D001250FE0454A126812F0020F6F
:1023400060D0434DEA6822F073024468013C43EADE
:1023500004131343EB600025002DD3D10F46044630
:102360003B4A136823F080631360FEF709FC0646BE
:10237000374B1B6813F0006F05D0FEF701FC801B84
:102380000228F5D90325002DBCD1002F3CD13049BE
:102390000B6923F0784323F4FE43A068E268D20679
:1023A00042EA002213430B61294A136843F0806319
:1023B0001360FEF7E5FB0646254B1B6813F0006F24
:1023C00005D1FEF7DDFB801B0228F5D90325002D82
:1023D00098D11F4A1369A1690B43136192E71C4A04
:1023E000126812F4806FACD10125B5E7184A126863
:1023F00012F4003FA5D1164A126812F4802FA0D122
:102400000125A9E70125A7E7012F0FD01048026990
:1024100022F0C06222F4FE42A16863695B08013BBE
:102420005B0643EA012313430361BDE708480269E1
:1024300022F4C00222F4FE42A16823695B08013B3A
:102440005B0543EA012313430361ADE7012559E727
:10245000001002402DE9F04182B00446036813F4F5
:10246000006F26D0C36BB3F5000F06D0B3F5400F55
:102470001DD09BB1012637461DE0AE4AD36843F418
:102480008033D3600027AB4AD2F8883023F440036E
:10249000E16B0B43C2F8883000260CE000210430C9
:1024A000FFF722FF07460028EDD0064603E000278D
:1024B000E9E700263746236813F4003F6BD09D4BB5
:1024C0009B6D13F0805F4CD19A4B9A6D42F0805215
:1024D0009A659B6D03F080530193019B4FF00108B7
:1024E000954A136843F480731360FEF749FB054671
:1024F000914B1B6813F4807F05D1FEF741FB401B15
:102500000228F5D90327002F40D18A4BD3F8903009
:1025100013F4407315D0226D9A4212D0854AD2F836
:10252000903023F44073D2F8901041F48031C2F817
:102530009010D2F8901021F48031C2F89010C2F8B7
:10254000903013F0010F0FD1002F40F0C980794A6D
:10255000D2F8903023F44073216D0B43C2F89030D1
:1025600015E04FF00008BBE7FEF70AFB0546714B8C
:10257000D3F8903013F0020FE6D1FEF701FB401BB9
:1025800041F288339842F2D90327DDE73E46B8F19D
:10259000000F40F0A780236813F0010F08D0654AB0
:1025A000D2F8883023F00303216A0B43C2F8883045
:1025B000236813F0020F08D05E4AD2F8883023F067
:1025C0000C03616A0B43C2F88830236813F0200FB4
:1025D00008D0584AD2F8883023F44063A16A0B43EC
:1025E000C2F88830236813F4007F08D0514AD2F82B
:1025F000883023F44023616B0B43C2F88830236892
:1026000013F4806F08D04B4AD2F8883023F440137B
:10261000A16B0B43C2F88830236813F0400F08D039
:10262000444AD2F8883023F44053E16A0B43C2F89D
:102630008830236813F4807F08D03E4AD2F888306F
:1026400023F44033216B0B43C2F88830236813F422
:10265000005F0FD0374AD2F8883023F04063216CF6
:102660000B43C2F88830236CB3F1006F40D0B3F154
:10267000806F42D0236813F4802F0FD02D4AD2F8F8
:10268000883023F04063616C0B43C2F88830636C80
:10269000B3F1006F39D0B3F1806F3BD0236813F4EE
:1026A000804F0CD0234AD2F8883023F04053A16CDD
:1026B0000B43C2F88830A36CB3F1805F32D023683B
:1026C00013F4004F08D01B4AD2F8883023F080431F
:1026D000E16C0B43C2F88830304602B0BDE8F081AF
:1026E0003E4654E7134A936D23F08053936552E7B7
:1026F000D36843F48013D360BCE70121201DFFF7AA
:10270000F3FD0028B6D00646B4E7D36843F480133F
:10271000D360C3E70121201DFFF7E6FD0028BDD0EF
:102720000646BBE70221201DFFF7DEFD0028C6D0CC
:102730000646C4E70010024000700040F8B50546A8
:102740000F4616461C462B689B6837EA03030CBFEE
:1027500001230023B34237D0B4F1FF3FF3D0FEF79B
:102760000FFA069BC01AA04201D2002CEBD12A68B6
:10277000536823F0E00353606B68B3F5827F0BD09E
:10278000AB6AB3F5005F14D0012385F85D300023F8
:1027900085F85C30032018E0AB68B3F5004F02D039
:1027A000B3F5806FECD12A68136823F040031360FF
:1027B000E6E72A68136823F4005313602A68136855
:1027C00043F400531360DFE70020F8BDF8B5074677
:1027D0000C4615461E4602E0B6F1FF3F0BD13A68A3
:1027E00093682340AB423BD0B4F5C06FF4D1002DC9
:1027F000F2D1137BF0E7FEF7C3F9069BC01AB04293
:1028000001D2002EEBD13A68536823F0E003536005
:102810007B68B3F5827F0BD0BB6AB3F5005F14D041
:10282000012387F85D30002387F85C30032018E02F
:10283000BB68B3F5004F02D0B3F5806FECD13A68B6
:10284000136823F040031360E6E73A68136823F443
:10285000005313603A68136843F400531360DFE7D2
:102860000020F8BD70B582B004460D4616460092B1
:102870000B4600224FF4C051FFF7A8FFB8B90096ED
:102880002B46002280212046FFF758FFB8B900965A
:102890002B4600224FF4C0612046FFF797FF034606
:1028A00050B1236E43F020032366032304E0236E1C
:1028B00043F0200323660323184602B070BD236E45
:1028C00043F0200323660323F6E7002853D010B516
:1028D00004460023836290F85D30002B40D0022331
:1028E00084F85D302268136823F040031360E368C6
:1028F000B3F5E06F39D90022B3F5706F04D0B3F5AA
:10290000E06F01D00021A162216B21B9B3F5E06F26
:102910002ED9022323636368A1680B4321690B430B
:1029200061690B43A16901F400710B43E1690B4339
:10293000216A0B43A06A216803430B60638B03F099
:102940000403616A0B43616B0B43E1680B4321682D
:1029500013434B6000202066012384F85D3010BDD6
:1029600080F85C3002F000F8B9E74FF48052C3E71A
:1029700001232363CFE7012070472DE9F843DDF8F9
:10298000208090F85C40012C00F05C811D461746C9
:102990000E460446012380F85C30FEF7F1F88146CC
:1029A00094F85D00C0B26368012814D0B3F5827F4B
:1029B00009D00223012284F85D20002284F85C20E3
:1029C0001846BDE8F883A368002B40F02D81042849
:1029D00001D00223EEE7002E00F02881002F00F046
:1029E0002781002D00F0268194F85D30DBB2042BA6
:1029F00002D0052384F85D30002323662764A4F801
:102A00004650A4F84450A663E587A587E364236590
:102A1000E368B3F5E06F01D8012D22D9226853682D
:102A200023F48053536023681A6812F0400F03D1D7
:102A30001A6842F040021A60E368B3F5E06F56D9B5
:102A400063680BB1012D0AD1A26B23681288DA608A
:102A5000A36B0233A363E38F013B9BB2E3870125A2
:102A600025E02268536843F480535360DBE7236812
:102A70009A6812F0010F10D0B4F8462092B262B1F9
:102A8000DA68236C1A80236C02332364B4F846306E
:102A9000013B9BB2A4F846300125FEF771F8A0EB8C
:102AA0000900404503D3B8F1FF3F40F0C580E38FF4
:102AB0009BB22BB9B4F846309BB2002B00F0A78034
:102AC00023689A6812F0020FD1D0E28F92B2002AE6
:102AD000CDD0002DCBD0A26B1288DA60A36B02336D
:102AE000A363E38F013B9BB2E3870025BFE76368E5
:102AF0000BB1012D0ED1E38F9BB2012B0CD9A26B30
:102B000023681288DA60A36B0233A363E38F023B6E
:102B10009BB2E387012547E0A26B236812781A7302
:102B2000A36B0133A363E38F013B9BB2E387F1E720
:102B3000E28F92B2012A0BD9A26B1288DA60A36BE2
:102B40000233A363E38F023B9BB2E38700253CE0A3
:102B5000A26B12781A73A36B0133A363E38F013B5B
:102B60009BB2E387002530E02268536843F480532A
:102B7000536001250CE0226C1B7B1370236C013326
:102B80002364B4F84630013B9BB2A4F846300125DB
:102B9000FDF7F6FFA0EB0900404502D3B8F1FF3F77
:102BA0004CD1B8F1000F4BD0E38F9BB21BB9B4F8F6
:102BB00046309BB25BB323689A6812F0020F04D0D0
:102BC000E28F92B20AB1002DB2D123689A6812F056
:102BD000010FDDD0B4F8462092B2002AD8D0B4F864
:102BE000462092B2012AC6D9DA68236C1A80236C77
:102BF00002332364B4F84630023B9BB2A4F846305B
:102C0000B4F846309BB2012BAED90125C0E74A4645
:102C100041462046FFF726FE034600283FF4CAAE91
:102C2000202323660123C5E60223C3E60123C1E670
:102C30000123BFE60123BDE60323BBE60323B9E678
:102C40000323B7E60223BBE630B4036A23F0010393
:102C50000362036A4468826922F4803222F07302BC
:102C60000D682A4323F002038D682B43144DA842BC
:102C700007D005F5A055A84203D005F58065A84208
:102C800005D123F00803CD682B4323F004030C4D3A
:102C9000A84207D005F5A055A84203D005F58065E8
:102CA000A84205D124F440754C692C438D692C430E
:102CB000446082614A684263036230BC704700BF6F
:102CC000002C014030B4036A23F480730362036A6A
:102CD0004268C46924F4803424F073040D682C43E2
:102CE00023F400738D6843EA0523124DA84219D0DE
:102CF000104DA84207D005F5A055A84203D005F510
:102D00008065A84207D122F440524D6942EA05127B
:102D10008D6942EA05124260C4614A68C263036277
:102D200030BC704723F40063CD6843EA052323F4E5
:102D30008063DDE7002C014030B4036A23F4805344
:102D40000362026A4468C36923F0807323F4E64394
:102D50000D6843EA052322F400528D6842EA0532E9
:102D60000B4DA84207D005F5A055A84203D005F5A4
:102D70008065A84204D124F480444D6944EA851456
:102D80004460C3614B680364026230BC704700BF9B
:102D9000002C014030B4036A23F480330362036AD9
:102DA0004468426D22F4803222F070020D682A439A
:102DB00023F400338D6843EA05430B4DA84207D046
:102DC00005F5A055A84203D005F58065A84204D1B9
:102DD00024F480344D6944EA0524446042654A681D
:102DE0008265036230BC7047002C014030B4036A36
:102DF00023F480130362026A4468436D23F08073F6
:102E000023F4E0430D6843EA052322F400128D68A1
:102E100042EA05520B4DA84207D005F5A055A8423D
:102E200003D005F58065A84204D124F480244D69BF
:102E300044EA8524446043654B68C365026230BC44
:102E4000704700BF002C014010B4036A046A24F0EC
:102E500001040462846924F0F00444EA021223F0BD
:102E60000A030B43826103625DF8044B704710B4A0
:102E7000036A23F0100303628469036A24F4704434
:102E800044EA023223F0A00343EA011382610362A1
:102E90005DF8044B7047836823F07003194341F0D9
:102EA0000701816070470000022380F83D3002680E
:102EB0009168094B0B40062B09D09168064B0B40DB
:102EC000B3F5803F03D0136843F00103136001237F
:102ED00080F83D30002070470700010070477047C0
:102EE000704770477047704710B5044603681A6909
:102EF00012F0020F11D0DA6812F0020F0DD06FF04D
:102F000002021A610123037703689B6913F0030F20
:102F100079D0FFF7E6FF0023237723681A6912F0C0
:102F2000040F12D0DA6812F0040F0ED06FF0040212
:102F30001A610223237723689B6913F4407F68D0CA
:102F40002046FFF7CEFF0023237723681A6912F08B
:102F5000080F12D0DA6812F0080F0ED06FF00802D6
:102F60001A61042323772368DB6913F0030F57D01A
:102F70002046FFF7B6FF0023237723681A6912F073
:102F8000100F12D0DA6812F0100F0ED06FF010028E
:102F90001A61082323772368DB6913F4407F46D046
:102FA0002046FFF79EFF0023237723681A6912F05B
:102FB000010F03D0DA6812F0010F3FD123681A69BC
:102FC00012F0800F03D0DA6812F0800F3DD1236831
:102FD0001A6912F4807F03D0DA6812F0800F3BD1B7
:102FE00023681A6912F0400F03D0DA6812F0400F1C
:102FF00039D123681A6912F0200F03D0DA6812F071
:10300000200F37D110BDFFF76BFF2046FFF76AFF97
:1030100081E72046FFF764FF2046FFF763FF92E752
:103020002046FFF75DFF2046FFF75CFFA3E7204641
:10303000FFF756FF2046FFF755FFB4E76FF0010298
:103040001A612046FFF74BFFB8E76FF080021A6164
:10305000204600F090FABAE76FF480721A612046B9
:1030600000F08AFABCE76FF040021A612046FFF7D1
:103070003AFFBEE76FF020021A61204600F07AFAAC
:10308000C0E7000003681A4A904202D0B0F1804FB6
:1030900003D123F070034A681343154A90420AD0C3
:1030A000B0F1804F07D002F5A052904203D002F554
:1030B0008062904203D123F44073CA68134323F023
:1030C00080034A69134303608B68C3620B688362A1
:1030D000074B984207D003F5A053984203D003F55D
:1030E0008063984201D10B690363012343617047F8
:1030F000002C0140A8B110B5044690F83D305BB1FA
:10310000022384F83D30211D2068FFF7BBFF012317
:1031100084F83D30002010BD80F83C3001F0FAFC0E
:10312000EEE701207047A8B110B5044690F83D3095
:103130005BB1022384F83D30211D2068FFF7A2FF18
:10314000012384F83D30002010BD80F83C30FFF7AB
:10315000C5FEEEE70120704730B4036A23F0100388
:103160000362036A4468826922F0807222F4E642B4
:103170000D6842EA052223F020038D6843EA051317
:10318000124DA84219D0114DA84207D005F5A055FF
:10319000A84203D005F58065A84207D124F4406415
:1031A0004D6944EA85048D6944EA8504446082617E
:1031B0004A688263036230BC704723F08003CD68A5
:1031C00043EA051323F04003DDE700BF002C014074
:1031D00038B590F83C30012B00F092800D46044643
:1031E000012380F83C30022380F83D30142A1ED899
:1031F000DFE802F00B1D1D1D241D1D1D381D1D1DAA
:103200004B1D1D1D5F1D1D1D72000068FFF71CFD7D
:103210002268936943F0080393612268936923F05D
:10322000040393612268936929690B439361012325
:1032300084F83D30002084F83C0038BD0068FFF77A
:103240008BFF2268936943F400639361226893695A
:1032500023F48063936122689369296943EA012317
:103260009361E4E70068FFF72DFD2268D36943F01E
:103270000803D3612268D36923F00403D361226871
:10328000D36929690B43D361D1E70068FFF754FD87
:103290002268D36943F40063D3612268D36923F4BD
:1032A0008063D3612268D369296943EA0123D3612A
:1032B000BDE70068FFF76EFD2268536D43F0080319
:1032C00053652268536D23F0040353652268536DE0
:1032D00029690B435365AAE70068FFF787FD226859
:1032E000536D43F4006353652268536D23F4806388
:1032F00053652268536D296943EA0123536596E7B4
:1033000002209AE710B4846824F47F4442EA03233D
:103310000B43234383605DF8044B704790F83C30C7
:10332000012B73D010B50446012380F83C300223F2
:1033300080F83D3002689068354B034093600B681D
:10334000402B59D010D9702B3CD01BD8502B49D0D2
:10335000602B30D1CA6849682068FFF788FD60217A
:103360002068FFF798FD26E0102B06D004D9202B0B
:1033700003D0302B01D01EE0EBB919462068FFF7CF
:103380008AFD18E0B3F5805F0ED0B3F5005F12D16F
:10339000CB684A6889682068FFF7B4FF22689368A1
:1033A00043F48043936006E02268936823F48033FB
:1033B00023F007039360012384F83D30002084F854
:1033C0003C0010BDCB684A6889682068FFF79AFF07
:1033D0002268936823F4803323F0770343F0770364
:1033E0009360E8E7CA6849682068FFF72DFD50211F
:1033F0002068FFF750FDDEE7CA6849682068FFF7DC
:1034000023FD40212068FFF746FDD4E702207047E6
:103410008800FEFF10B401F01F01012303FA01F43C
:10342000036A23EA04030362036A8A4013430362C4
:103430005DF8044B7047000010B504460122006897
:10344000FFF7E8FF2368104A934207D002F5A05225
:10345000934203D002F58062934203D15A6C42F446
:1034600000425A6422689168084B0B40062B09D031
:103470009168064B0B40B3F5803F03D0136843F0CF
:1034800001031360002010BD002C01400700010063
:1034900090F83C30012B25D030B4012380F83C302B
:1034A000022380F83D300268536895680E4CA242B2
:1034B00013D023F070030C68234325F0800489683F
:1034C0002143536003689960012380F83D30002355
:1034D00080F83C30184630BC704723F470034C68C9
:1034E0002343E6E702207047002C014090F83C306F
:1034F000012B3BD010B4012380F83C30CB6823F47F
:1035000040738A68134323F480634A68134323F4A7
:1035100000630A68134323F480530A69134323F4B6
:1035200000534A69134323F480438A6A134323F404
:1035300070238A6943EA024302680D4CA24207D015
:103540005364002380F83C3018465DF8044B704704
:1035500023F470034C6A43EA045323F08073CC696C
:10356000234323F00073096A0B43E9E70220704705
:10357000002C014070477047704730B40022026051
:103580004260826000240025C0E90445A0F848207C
:1035900030BC7047F8B5064617468161A6F848204A
:1035A00000F11C044FF090450FCD0FC40FCD0FC498
:1035B00095E8070084E807000122394606F11C005F
:1035C000FEF7B2F9F8BD00002DE9704384B006465D
:1035D000002404AD45F8044D224602214FF09040EE
:1035E000FEF7A2F9009401232A462146B069FFF7AD
:1035F000C4F9234B9B6813F0800FFAD1BDF80C403F
:10360000012202214FF09040FEF78EF92409002399
:103610000F2B01DC0133FBE77068FCF72BFF8046C2
:10362000894615A3D3E90023FDF71EFA38B12046D9
:10363000FCF720FF0022134BFDF702FA98B9002295
:10364000104B40464946FDF7F1F978B12046FCF7AA
:1036500011FF09A3D3E90023FDF7FCF930B133686A
:10366000013B336002E03368013333607460A0B221
:10367000002104B0BDE870830000000000ACAA4047
:10368000003001400050854010B50446FFF79CFF14
:10369000236800EB033010BDB4EEE00AF1EE10FA3F
:1036A00020DA70EEC06AD0ED0E7A86EEA76AD0ED11
:1036B000097A66EE277AC0ED097A90ED127A27EE44
:1036C000067A80ED127AB7EE007AF4EEC77AF1EE60
:1036D00010FA08DD80ED097A80ED0C0AC0ED0D0AC4
:1036E000C0ED0E6A7047F5EEC07AF1EE10FAF3D530
:1036F00000234362F0E7B4EEE00AF1EE10FA1ADAC2
:1037000030EEC07AD0ED116AC7EE267AD0ED0B6AA2
:1037100067EEA67AC0ED0B7AF7EE006AF4EEE67A71
:10372000F1EE10FA08DDC0ED0B6A80ED0F0AC0ED76
:10373000100A80ED117A7047F5EEC07AF1EE10FABA
:10374000F3D50023C362F0E7B5EE400AF1EE10FABC
:103750005FD0F5EEC00AF1EE10FA5AD4B5EEC01AF9
:10376000F1EE10FA55D4D0B52DED028BF0EE418A72
:10377000B0EE408A044684ED040AC0ED050A84EDEB
:10378000061AF5EE400AF1EE10FA2ED010EE900A6D
:10379000FCF782FE02460B4600201E49FCF7FEFFA6
:1037A00006460F46206DFCF777FE02460B46304674
:1037B0003946FCF7C9FEFDF761F907EE900A637818
:1037C00033B1F5EE407AF1EE10FA11D10023A36483
:1037D00084ED018AC4ED027A94ED147AC8EE877AFA
:1037E000C4ED037ABDEC028BD0BDDFED0B7AE6E7CA
:1037F000D4ED016A94ED027A66EE876A27EE887A44
:1038000086EE876A94ED127A27EE067A84ED127AB4
:10381000DEE770470000F03F0000000010B52DED1E
:10382000068B0446B0EE409AF0EE609AB0EE41AAE4
:10383000F0EE61AA9FED1B8A80ED168A80ED178A53
:10384000002303704370DFED188AF0EE680AB0EED3
:10385000480AFFF721FFF0EE680AB0EE480A20465A
:10386000FFF749FFC4ED14AAB0EE4A1AF0EE690A58
:10387000B0EE490A2046FFF767FF84ED078A84ED22
:10388000088A84ED098A84ED0A8A84ED0B8A84ED26
:10389000128A84ED138A84ED158A2046BDEC068BCE
:1038A00010BD00BF00000000333353400378D3B98C
:1038B000D0ED157A90ED0F7A77EEC77AD0ED116AD8
:1038C00087EEA67A80ED0B7AD0ED087A90ED0C7A2F
:1038D00077EEC77AD0ED0E6A87EEA67A80ED097A88
:1038E000002383647047D0ED137A90ED0F7A77EE62
:1038F000C77AD0ED116A87EEA67AE3E738B50546B8
:103900000C4609B1437823B1003418BF01246C7010
:1039100038BDFFF7CBFFF7E780ED070A704780ED72
:10392000130A01230370704700238B4211D230B475
:103930001A18D2E90045B5F1FF3F08BFB4F1FF3FC7
:1039400005D108338B42F3D30B2030BC70470A20DB
:10395000FBE70B207047000030B4254BD3E900454E
:1039600003F50063D3E90023012807D0F0B954EA36
:10397000050135D0134335D11E481BE052EA03013F
:1039800008D1002D08BFB4F1AA3F01D0194811E0B9
:1039900017480FE054EA05011FD1002B08BFB2F110
:1039A000AA3F01D0124805E0124803E0022803D0E4
:1039B0004FF0FF3030BC7047B5F1FF3F08BFB4F1A6
:1039C000FF3F12D0B3F1FF3F08BFB2F1FF3F02D07B
:1039D0004FF0FF30EEE70748ECE74FF0FF30E9E744
:1039E0000348E7E74FF0FF30E4E70148E2E700BFB4
:1039F00000E8030800F0030800F17842084B18685B
:103A00004FF6FF73984208D0064B03EA8023B2FBBF
:103A1000F3F003FB1020C00A70474FF48013F6E761
:103A2000E075FF1F00FC3F0001207047F8B5064617
:103A30000F460120FFF790FFB0F1FF3F22D008238F
:103A4000B3F5006F20D21918D1E90045B5F1FF3F59
:103A500008BFB4F1FF3F01D00833F1E73B0C3A0453
:103A6000B4B2002544EA020645EA03073B043204E7
:103A700043EA16430020FDF771FD08B90020F8BDA8
:103A80000520FCE70620FAE70C20F8E700B587B030
:103A900000230293012305930490039101A902A836
:103AA000FDF706FE18B9002007B05DF804FB0320FF
:103AB000FAE7000008B54FF400611448FFF734FF3F
:103AC0000A280FD00022002310490020FDF746FDF0
:103AD000C8B94FF400610E48FFF726FF0A2809D045
:103AE000002011E001217D20FFF7D0FF0028E9D060
:103AF000032009E001217E20FFF7C8FF08B900205C
:103B000002E0032000E0052008BD00BF00E8030834
:103B100000F003082DE9F84F804689460020FFF7A2
:103B20001BFFB0F1FF3F25D04FF4FF6100E00839E3
:103B3000072921D90B18D3E90023B3F1FF3F08BFB0
:103B4000B2F1FF3FF3D00D4C002504EA020A05EA6A
:103B5000030B54465D461FFA88FA4FEA1A474FEAAC
:103B60000A46BD4208BFB442E1D1C9F80030002086
:103B7000BDE8F88F0620FBE70720F9E70000FFFF0C
:103B80002DE9F04182B00546884614460020FFF733
:103B9000E3FEB0F1FF3F4BD00646C4B90220FFF769
:103BA000DBFE0746B0F1FF3F44D044B94FF0AA32E4
:103BB000002301460020FDF7D1FC00283CD14146FE
:103BC0002846FFF733FF002838D1002402E0012007
:103BD000E5E701349F2C15D81A4B33F81400A8429E
:103BE000F7D001A9FFF796FF0028F2D10199154BF4
:103BF00033F81400FFF71AFF0028EAD0052002B0BE
:103C0000BDE8F0813046FFF7F7FE04463046FFF787
:103C10000BFF81B22046FFF739FF88B9002200234D
:103C20003946FDF79BFC08B90020E8E70520E6E7E8
:103C30000620E4E70620E2E70520E0E70520DEE7CE
:103C40000320DCE72C00002000239F2B09D8664AC4
:103C500032F813104FF6FF72914200F0C08001332A
:103C6000F3E710B5614BD3E900236149D1E90001C5
:103C7000002B08BFB2F1AA3F49D0B3F1FF3F08BF04
:103C8000B2F1FF3F08D0134378D0FFF713FF0028AD
:103C900040F0A380002010BD50EA010309D00029A4
:103CA00008BFB0F1AA3F16D0FFF704FF68BB0020A1
:103CB000F1E74FF400614D48FFF736FE0A2801D0C6
:103CC0000020E8E701217D20FFF7E0FE002800F05A
:103CD00088800320DFE74FF400614448FFF724FEAB
:103CE0000A2808D00022002341490020FDF736FCB5
:103CF00048B90020CFE701217D20FFF7C7FE00284B
:103D0000F0D00320C7E70520C5E70420C3E750EA49
:103D100001030AD0B1F1FF3F08BFB0F1FF3F11D05E
:103D2000FFF7C8FE40BB0020B5E7324BD3E90034B3
:103D300001222146180CFFF723FF08B90020AAE74B
:103D40000920A8E74FF400612948FFF7EDFD0A2894
:103D500008D00022002325490020FDF7FFFB48B9C9
:103D6000002098E701217E20FFF790FE0028F0D088
:103D7000032090E705208EE704208CE750EA01033A
:103D800010D0B1F1FF3F08BFB0F1FF3F11D01A4B87
:103D9000D3E9003401222146180CFFF7F1FED0B917
:103DA000002078E7FFF786FE08B9002073E70420BB
:103DB00071E74FF400610E48FFF7B6FD0A2801D005
:103DC000002068E701217E20FFF760FE08B900208F
:103DD00061E703205FE709205DE704205BE7082037
:103DE0007047002057E700BF2C00002000E80308C0
:103DF00000F0030808E8030808F0030838B5044693
:103E00000D46FFF713FE0C2800D038BD00222946CE
:103E10002046FFF7B5FEF8E700B589B0194BDA6C1C
:103E200042F00102DA64DA6C02F001020192019AB6
:103E3000DA6C42F00202DA64DB6C03F002030293F4
:103E4000029B002241F203414FF09040FDF76CFDD0
:103E500041F213430393012304930593069303A9AB
:103E60004FF09040FDF7A0FC10230393064B049302
:103E70000023059303A94FF09040FDF795FC09B08E
:103E80005DF804FB001002400000111000B583B083
:103E90000E4B9A6C42F002029A649B6C03F0020390
:103EA0000193019B002211463820FDF78BF9382041
:103EB000FDF7BCF9002211463920FDF783F93920BE
:103EC000FDF7B4F903B05DF804FB00BF0010024039
:103ED00008B5002211460A20FDF774F90A20FDF703
:103EE000A5F9002203213720FDF76CF93720FDF7F3
:103EF0009DF908BD38B52DED028BDFED2C8A2C4CD9
:103F0000F0EE680A9FED2B0A2046FFF7C5FBF7EE9F
:103F1000000ABFEE000A2046FFF7EDFB94ED181AE9
:103F2000D4ED190AB0EE410A2046FFF70DFC9FEDD3
:103F3000228AB0EE480A2046FFF7F1FC0121204614
:103F4000FFF7DCFC04F16805DFED1C0A9FED1C0A9D
:103F50002846FFF7A1FBF7EE000AB0EE600A2846FC
:103F6000FFF7C9FBB0EE480A2846FFF7D8FC01214D
:103F70002846FFF7C3FCC834F0EE680A9FED110A2B
:103F80002046FFF789FBF7EE000ABFEE000A204645
:103F9000FFF7B1FBB0EE480A2046FFF7C0FC012155
:103FA0002046FFF7ABFCBDEC028B38BD000080451E
:103FB000A0010020000080C5CDCC4C3DE17AD44565
:103FC000E17AD4C500000000012800D070474FF608
:103FD000FF739942FAD110B52DED028B9FED198A2E
:103FE000194CDFED1A1AB0EE481AF0EE480A9FEDB0
:103FF000180A2046FFF712FCDFED168AF0EE681A69
:10400000B0EE481AF0EE480AB7EE000A04F1680074
:10401000FFF704FCF0EE681AB0EE481AF0EE480A1A
:10402000B7EE000A04F1C800FFF7F8FB04F594703E
:10403000FFF7A3FAFEF746F9C4F87801BDEC028B4E
:1040400010BD00BF00000000A00100206F128339E6
:10405000000048420AD7233BFEE7000000B58FB0BE
:1040600029484FF08043C0F87C310023C0F88031EC
:10407000C0F88431C0F88831C0F88C31C0F8943170
:1040800000F5BE70FFF736F828BB0EA94FF4805339
:1040900041F8103D1D48FFF741F908BB1B48FFF7E9
:1040A00042F810BB00230793099307A91748FFF7AD
:1040B000EFF9F8B960230093002201920292049272
:1040C00069461248FFF784F8C8B9104800F058FD57
:1040D0000FB05DF804FB4FF4CB710D48FFF7BCFF48
:1040E0004FF4CE710A48FFF7B7FF40F2A11108481C
:1040F000FFF7B2FF4FF4D4710548FFF7ADFF40F270
:10410000B1110348FFF7A8FFA00100201C03002005
:10411000C04D000800B59BB03B483C4BC0F8BC31DB
:104120000023C0F8C031C0F8C431C0F8C831C0F8AD
:10413000CC31C0F8D031C0F8D43100F5DE70FEF7D4
:10414000D9FF002842D11AA94FF4805341F8103DFD
:104150002F48FFF7E3F800283DD12D48FEF7E3FF95
:1041600000283DD1002313931493159313A92848D5
:10417000FFF78EF9002838D160230C9300230D93AC
:104180000E931093119312930C220CA92048FFF761
:104190001FF800282ED10023019302930393049368
:1041A00005934FF400520692079308934FF0007264
:1041B00009920A930B9301A91548FFF797F9F0B9F3
:1041C000134800F0DDFC1BB05DF804FB4FF4A67152
:1041D0001048FFF741FF4FF4A9710E48FFF73CFF6D
:1041E00040F257110B48FFF737FF40F25F110948C3
:1041F000FFF732FF4FF4B5710648FFF72DFF4FF47C
:10420000BD710448FFF728FFA0010020002C0140E9
:104210005C030020C04D000808B51948194BC0F8D0
:10422000FC314FF48273C0F800320023C0F804322E
:104230004FF47062C0F80822C0F80C32C0F8103297
:104240004FF40072C0F81422C0F81832C0F81C32C3
:10425000C0F82032C0F824320722C0F82822C0F863
:104260002C320823C0F8303200F5FE70FEF72DFB2B
:1042700000B908BD40F21F110348FFF7EDFE00BF73
:10428000A001002000300140C04D000800B587B0FB
:104290002248234BC0F860320023C0F86432C0F8D3
:1042A0006832C0F86C32C0F870320422C0F8742250
:1042B00080F8783280F879320122C0F87C2280F8C8
:1042C0008032C0F88422C0F88832C0F88C3280F87E
:1042D0009032C0F8943280F8983200F51870FCF7EC
:1042E00055FC90B90F4B00930623019300230293D2
:1042F0007F22039204220492059369460A48FCF740
:1043000037FD30B907B05DF804FBF9210748FFF726
:10431000A3FE40F207110548FFF79EFEA001002012
:10432000000004500080F03E00040020C04D000852
:1043300000B585B01348144BC0F8C4320023C0F850
:10434000C832C0F8CC324FF4FA62C0F8D022C0F8BC
:10435000DC3200F53170FEF7CDFE50B90023019339
:10436000039301A90948FFF793F830B905B05DF848
:1043700004FBD3210648FFF76FFEDA210448FFF75C
:104380006BFE00BFA0010020001400406404002068
:10439000C04D000808B51648164BC0F8043300237A
:1043A000C0F80833C0F80C334FF47062C0F8102323
:1043B000C0F81433C0F818334FF40072C0F81C234F
:1043C000C0F82433C0F82833C0F82C330722C0F8D3
:1043D0003023C0F83433C0F8383300F54170FEF7AD
:1043E00074FA00B908BD4FF49B710348FFF734FE1F
:1043F000A0010020003C0040C04D000808B50C485A
:104400000C4BC0F868330023C0F86C3340F6FF73E0
:10441000C0F87433C0F8703300F55A70FDF798FA9D
:1044200000B908BD4FF4FE710348FFF715FE00BF49
:10443000A001002000300040C04D000800B5ADB024
:1044400010231B93012221920023229360232393A4
:104450000223259326922792282228920722299226
:104460002A932B931BA8FDF7A3FB00283DD10F2314
:104470001693032317930023189319931A93042177
:1044800016A8FDF76FFE002833D14FF48043019347
:104490004FF080531393012302930393102304934B
:1044A000072305930223069307934FF08073089325
:1044B00001A8FDF7CFFF00BB4FF40070FDF77CFAB9
:1044C000F8B9FDF7F9FE114BA3FB00308009FCF7AA
:1044D000B9FE0420FCF7CCFE002211464FF0FF305D
:1044E000FCF770FE2DB05DF804FB96210848FFF73D
:1044F000B3FDA4210648FFF7AFFDB2210448FFF742
:10450000ABFDB9210248FFF7A7FD00BFD34D6210F4
:10451000C04D0008F8B5824C04F56271814BD88912
:10452000FFF7F8FAD4F88833002B00F08C807C4C2D
:1045300004F562767B4D3146A889FFF7EBFA032339
:104540006B813146E889FFF7E5FA4FF08243C5F801
:104550004C313146288AFFF7DDFAD4F88833724FA0
:10456000A7FB03239B0907EE903AF8EE677AC4EDA8
:10457000197A3146688AFFF7CDFAD4F88833A7FB59
:1045800003239B0907EE903AF8EE677AC4ED187A98
:104590003146A88AFFF7BEFAD4F88833A7FB032375
:1045A0009B0907EE903AF8EE677AC5ED547A3146EA
:1045B000E88AFFF7AFFAD4F88833A7FB03239B09F7
:1045C00007EE903AF8EE677AC4EDE37A3146288B2D
:1045D000FFF7A0FAD4F88833A7FB03239B0907EE63
:1045E000903AF8EE677AC4EDE67A3146688BFFF7C9
:1045F00091FAD4F88833A7FB03239B0907EE903A7E
:10460000F8EE677AC5ED557A3146A88BFFF782FA46
:10461000D4F88833A7FB03239B0907EE903AF8EE02
:10462000677AC4EDE47A3146E88BFFF773FAD4F881
:104630008833A7FB0337BF0907EE907AF8EE677A55
:10464000C4EDE57AF8BD374C6189A089FFF7D6FB48
:10465000D4ED537AFCEEE77A17EE901A4FF47A75A0
:1046600005FB01F1E089FFF7C9FB2D4ED6ED197A64
:10467000FCEEE77A17EE901A05FB01F1208AFFF7AE
:10468000BDFBD6ED187AFCEEE77A17EE901A05FB23
:1046900001F1608AFFF7B2FBD4ED547AFCEEE77AC1
:1046A00017EE901A05FB01F1A08AFFF7A7FBD6EDE4
:1046B000E37AFCEEE77A17EE901A05FB01F1E08A47
:1046C000FFF79CFBD6EDE37AFCEEE77A17EE901A43
:1046D00005FB01F1208BFFF791FBD4ED557AFCEE41
:1046E000E77A17EE901A05FB01F1608BFFF786FB66
:1046F000D6EDE47AFCEEE77A17EE901A05FB01F1AD
:10470000A08BFFF77BFBD6EDE57AFCEEE77A17EEA0
:10471000901A05FB01F1E08BFFF770FB92E700BFF9
:10472000A001002020000020D34D621008B5FCF746
:104730000FFAFFF783FEFFF76FFBFFF7A7FBFFF70B
:104740008DFCFFF7E7FCFFF767FDFFF79FFDFFF725
:10475000EFFDFFF71FFEFFF7BBFBFCF79FFEFFF728
:1047600073FAFFF7D7FEFFF7C5FB304D05F5BE74B2
:104770002046FEF799FB05F5DE70FEF795FB00215C
:104780002046FEF759FE18B15E212948FFF764FC68
:104790000C212848FEF750FE18B162212448FFF78B
:1047A0005BFC4FF090435A6922F002025A615A6949
:1047B00042F480625A615A6922F480525A611B4C59
:1047C00004F59475002204F5FE712846FEF7E2FE1A
:1047D0002846FEF759FF07EE900AB8EEE70A84ED87
:1047E000DF0A2046FFF798F8D4F87C21D4F8783116
:1047F0004FF4487193FBF1F3D362C4F88831D4F8D5
:10480000BC21D362C4F8C8312846FEF73DFFFFF74C
:10481000F5FD04F53170FEF747FBD4F8C4320122F0
:104820005A62DA6842F00102DA60FEE7A001002075
:10483000C04D00085C03002008B54FF6FF71012051
:10484000FFF7C2FB08BD000000B583B0214B1A6E14
:1048500042F001021A661A6E02F001020092009AFA
:104860009A6D42F080529A659B6D03F080530193DC
:10487000019B0320FCF794FC002211466FF00B0013
:10488000FCF7A0FC002211466FF00A00FCF79AFC2E
:10489000002211466FF00900FCF794FC002211463B
:1048A0006FF00400FCF78EFC002211466FF003004D
:1048B000FCF788FC002211466FF00100FCF782FC37
:1048C000002211464FF0FF30FCF77CFC03B05DF88E
:1048D00004FB00BF0010024002681E4B9A4200D049
:1048E000704730B587B0044603F17043A3F5F83341
:1048F000DA6C42F40052DA64DB6C03F40053009388
:10490000009B012301930B2302930025039501A92A
:104910001148FCF749FF1148114B03604560856061
:10492000C560802303614FF4807343614FF480635B
:104930008361C5614FF400530362FCF7AFFC20B9FB
:10494000064BE3649C6207B030BD7D210548FFF74C
:1049500083FBF5E7000004500004004844050020F4
:1049600008000240D04D000870B588B004460368C6
:104970005B4A934204D05B4A934258D008B070BD62
:10498000594B1A6E42F480521A661B6E03F4805320
:104990000193019BE02303930223049300250595D3
:1049A000032306930523079303A94FF09040FCF7D8
:1049B000FBFE4E484E4B0360012343608560C5609B
:1049C00005614FF4807343614FF400638361C561F7
:1049D0004FF400530362FCF761FCF0B9434BA3654D
:1049E0009C624448444B036001234360102383606E
:1049F0000023C360802202614FF4807242614FF451
:104A000000628261C3614FF400530362FCF746FC0D
:104A100040B9384B63659C62B0E7C7213748FFF760
:104A20001BFBDBE7D8213548FFF716FBF1E72E4BE0
:104A30009A6D42F400429A659B6D03F40043029321
:104A4000029B382303930223049300250595032634
:104A500006960623079303A92948FCF7A5FE2948D3
:104A6000294B036046608560C560802303614FF475
:104A7000807343614FF480638361C5614FF4405399
:104A80000362FCF70BFCF0B91E4BA3659C621F4848
:104A90001F4B036003234360102383600023C36024
:104AA000802202614FF4807242614FF48062826121
:104AB000C3614FF440530362FCF7F0FB48B9134B5A
:104AC00063659C625AE74FF481710C48FFF7C4FAA2
:104AD000DAE740F213110948FFF7BEFAEFE700BF2B
:104AE00000300140003C00400010024064060020FD
:104AF0001C0002401C06002030000240D04D00087F
:104B000000040048D4050020080402408C05002061
:104B10001C04024084B00368164A934207D0B3F1E4
:104B2000804F0FD0144A934218D004B07047134BF3
:104B30001A6E42F400621A661B6E03F4006301935E
:104B4000019BF2E703F504339A6D42F001029A6586
:104B50009B6D03F001030293029BE6E7074B9A6DFE
:104B600042F020029A659B6D03F020030393039BA0
:104B7000DBE700BF002C01400014004000100240A1
:104B800000B587B00368154A934205D0B3F1804F52
:104B900013D007B05DF804FB4FF4006301930223C8
:104BA000029300230393032304930123059301A994
:104BB0004FF09040FCF7F8FDEBE74FF40043019312
:104BC00002230293002303930323049301230593F9
:104BD00001A94FF09040FCF7E7FDDAE7002C014017
:104BE0007047FEE7FEE7FEE7FEE770477047704755
:104BF00008B5FBF7BDFFFCF74CFB08BD08B510205E
:104C0000FCF798FE012202214FF09040FCF78CFE49
:104C10001020FCF78FFE08BD08B50248FCF7BAFB70
:104C200008BD00BF4405002008B50248FCF7B2FBF0
:104C300008BD00BF6406002008B50248FCF7AAFBC7
:104C400008BD00BF1C06002008B50248FEF74CF95D
:104C500008BD00BF6404002008B50248FCF79AFBB9
:104C600008BD00BFD405002008B50248FCF792FB40
:104C700008BD00BF8C0500200F49D1F8883043F4EF
:104C80007003C1F888300D4B1A6842F001021A60B7
:104C9000002098601A6822F0A85222F410221A60AC
:104CA0004FF48052DA601A6822F480221A60986108
:104CB0004FF000638B60704700ED00E00010024091
:104CC000DFF834D0002103E00C4B5B584350043133
:104CD0000B480C4B42189A42F6D30B4A02E00023D1
:104CE00042F8043B094B9A42F9D3FFF7C5FF00F0A5
:104CF00011F8FFF71BFDFEE700000120004E000841
:104D0000000000208001002080010020F407002026
:104D1000FEE7000070B50D4E0D4CA41BA41000253D
:104D2000A54209D10B4E0C4C00F018F8A41BA4109E
:104D30000025A54205D170BD56F8253098470135AC
:104D4000EEE756F8253098470135F2E7F04D0008B8
:104D5000F04D0008F04D0008F84D0008F8B500BF10
:104D6000F8BC08BC9E467047F8B500BFF8BC08BC4C
:084D70009E46704700000000A0
:104D7800A0860100400D0300801A060000350C00D3
:104D880040420F0080841E0000093D0000127A0096
:104D98000024F40000366E010048E801006CDC02D3
:104DA80000000000000000000102030406070809D3
:104DB80000000000010203042E2E2F5372632F6D92
:104DC80061696E2E637070002E2E2F5372632F73DD
:104DD800746D33326C3478785F68616C5F6D7370B2
:084DE8002E6300000000000032
:084DF000B50100083948000874
:084DF800910100080000000019
:104E000000000000000000000000000000000000A2
:104E10000100000000000000000000000000000091
:104E200001000200030004000500030055556666FA
:104E3000777788889999AAAABBBBCCCCDDDDEEEE4A
:104E40000000000000000000000000000000000062
:104E50000000000000000000000000000000000052
:104E60000000000000000000000000000000000042
:104E70000000000000000000000000000000000032
:104E80000000000000000000000000000000000022
:104E90000000000000000000000000000000000012
:104EA0000000000000000000000000000000000002
:104EB00000000000000000000000000000000000F2
:104EC00000000000000000000000000000000000E2
:104ED00000000000000000000000000000000000D2
:104EE00000000000000000000000000000000000C2
:104EF00000000000000000000000000000000000B2
:104F000000000000000000000000000000000000A1
:104F10000000000000000000000000000000000091
:104F20000000000000000000000000000000000081
:104F30000000000000000000000000000000000071
:104F40000000000000000000000000000000000061
:104F50000000000000000000000000000000000051
:104F60000000000000000000000000000000004100
:104F70000000803F0000803F00093D00000000006D
:0400000508004CC1E2
:00000001FF
