:020000040800F2
:1000000000000120455300084552000847520008EF
:10001000495200084B5200084D52000800000000F1
:100020000000000000000000000000004F52000827
:1000300051520008000000005352000855520008B9
:1000400095530008955300089553000895530008F0
:1000500095530008955300089553000895530008E0
:100060009553000895530008615200089952000802
:10007000A9520008B952000895530008955300088A
:1000800095530008955300089553000895530008B0
:1000900095530008955300089553000895530008A0
:1000A0009553000895530008955300089553000890
:1000B0009553000800000000000000009553000860
:1000C0009553000800000000000000009553000850
:1000D0000000000095530008955300080000000040
:1000E0009553000895530008000000000000000030
:1000F0000000000000000000000000000000000000
:1001000000000000000000000000000095530008FF
:10011000000000000000000095530008C9520008CC
:10012000DD520008ED520008955300089553000871
:1001300095530008000000000000000000000000CF
:1001400095530008955300089553000895530008EF
:1001500095530008955300089553000895530008DF
:1001600095530008955300089553000800000000BF
:10017000955300089553000800000000000000009F
:10018000955300089553000895530008000000009F
:1001900010B5054C237833B9044B13B10448AFF3C1
:1001A00000800123237010BD90010020000000009A
:1001B000E053000808B5034B1BB103490348AFF3F4
:1001C000008008BD0000000094010020E0530008FA
:1001D00081F0004102E000BF83F0004330B54FEAF8
:1001E00041044FEA430594EA050F08BF90EA020F65
:1001F0001FBF54EA000C55EA020C7FEA645C7FEAF8
:10020000655C00F0E2804FEA5454D4EB5555B8BF1A
:100210006D420CDD2C4480EA020281EA030382EA8B
:10022000000083EA010180EA020281EA0303362D1D
:1002300088BF30BD11F0004F4FEA01314FF4801CF0
:100240004CEA113102D0404261EB410113F0004F02
:100250004FEA03334CEA133302D0524263EB4303B9
:1002600094EA050F00F0A780A4F10104D5F1200E57
:100270000DDB02FA0EFC22FA05F2801841F10001B2
:1002800003FA0EF2801843FA05F359410EE0A5F186
:1002900020050EF1200E012A03FA0EFC28BF4CF0B7
:1002A000020C43FA05F3C01851EBE37101F000456D
:1002B00007D54FF0000EDCF1000C7EEB00006EEB7A
:1002C0000101B1F5801F1BD3B1F5001F0CD3490804
:1002D0005FEA30004FEA3C0C04F101044FEA44525B
:1002E00012F5800F80F09A80BCF1004F08BF5FEAE2
:1002F000500C50F1000041EB045141EA050130BDC2
:100300005FEA4C0C404141EB010111F4801FA4F164
:100310000104E9D191F0000F04BF01460020B1FAB9
:1003200081F308BF2033A3F10B03B3F120020CDAF1
:100330000C3208DD02F1140CC2F10C0201FA0CF0CF
:1003400021FA02F10CE002F11402D8BFC2F1200C34
:1003500001FA02F120FA0CFCDCBF41EA0C019040EA
:10036000E41AA2BF01EB0451294330BD6FEA040433
:100370001F3C1CDA0C340EDC04F11404C4F120021E
:1003800020FA04F001FA02F340EA030021FA04F330
:1003900045EA030130BDC4F10C04C4F1200220FA87
:1003A00002F001FA04F340EA0300294630BD21FAC5
:1003B00004F0294630BD94F0000F83F4801306BF8B
:1003C00081F480110134013D4EE77FEA645C18BF7F
:1003D0007FEA655C29D094EA050F08BF90EA020F16
:1003E00005D054EA000C04BF1946104630BD91EA0E
:1003F000030F1EBF0021002030BD5FEA545C05D111
:100400004000494128BF41F0004130BD14F580044F
:100410003CBF01F5801130BD01F0004545F0FE41C3
:1004200041F470014FF0000030BD7FEA645C1ABFF8
:10043000194610467FEA655C1CBF0B46024650EA2F
:10044000013406BF52EA033591EA030F41F400215B
:1004500030BD00BF90F0000F04BF0021704730B5E1
:100460004FF4806404F132044FF000054FF00001B6
:1004700050E700BF90F0000F04BF0021704730B577
:100480004FF4806404F1320410F0004548BF40424C
:100490004FF000013EE700BF42004FEAE2014FEAA1
:1004A00031014FEA02701FBF12F07F4393F07F4F7C
:1004B00081F06051704732F07F4208BF704793F07F
:1004C0007F4F04BF41F40021704730B54FF4607492
:1004D00001F0004521F000411CE700BF50EA010295
:1004E00008BF704730B54FF000050AE050EA01023E
:1004F00008BF704730B511F0004502D5404261EBAE
:1005000041014FF4806404F132045FEA915C3FF4EE
:10051000D8AE4FF003025FEADC0C18BF03325FEA8B
:10052000DC0C18BF033202EBDC02C2F1200300FA3C
:1005300003FC20FA02F001FA03FE40EA0E0021FA61
:1005400002F11444BDE600BF70B54FF0FF0C4CF44F
:10055000E06C1CEA11541DBF1CEA135594EA0C0F01
:1005600095EA0C0F00F0DEF82C4481EA030621EA3C
:100570004C5123EA4C5350EA013518BF52EA033577
:1005800041F4801143F4801338D0A0FB02CE4FF029
:100590000005E1FB02E506F00042E0FB03E54FF059
:1005A0000006E1FB03569CF0000F18BF4EF0010E51
:1005B000A4F1FF04B6F5007F64F5407404D25FEA4D
:1005C0004E0E6D4146EB060642EAC62141EA555100
:1005D0004FEAC52040EA5E504FEACE2EB4F1FD0C42
:1005E00088BFBCF5E06F1ED8BEF1004F08BF5FEAC0
:1005F000500E50F1000041EB045170BD06F0004672
:1006000046EA010140EA020081EA0301B4EB5C041E
:10061000C2BFD4EB0C0541EA045170BD41F4801116
:100620004FF0000E013C00F3AB8014F1360FDEBF3B
:10063000002001F0004170BDC4F10004203C35DA17
:100640000C341BDC04F11404C4F1200500FA05F39A
:1006500020FA04F001FA05F240EA020001F000423B
:1006600021F0004110EBD37021FA04F642EB0601B1
:100670005EEA430E08BF20EAD37070BDC4F10C04DB
:10068000C4F1200500FA04F320FA05F001FA04F29F
:1006900040EA020001F0004110EBD37041F100018B
:1006A0005EEA430E08BF20EAD37070BDC4F1200596
:1006B00000FA05F24EEA020E20FA04F301FA05F2FE
:1006C00043EA020321FA04F001F0004121FA04F2A6
:1006D00020EA020000EBD3705EEA430E08BF20EA76
:1006E000D37070BD94F0000F0FD101F000464000B0
:1006F00041EB010111F4801F08BF013CF7D041EA32
:10070000060195F0000F18BF704703F00046520035
:1007100043EB030313F4801F08BF013DF7D043EA06
:100720000603704794EA0C0F0CEA135518BF95EABC
:100730000C0F0CD050EA410618BF52EA4306D1D143
:1007400081EA030101F000414FF0000070BD50EA62
:10075000410606BF1046194652EA430619D094EAEC
:100760000C0F02D150EA013613D195EA0C0F05D1D6
:1007700052EA03361CBF104619460AD181EA03012A
:1007800001F0004141F0FE4141F470014FF00000E2
:1007900070BD41F0FE4141F4780170BD70B54FF07D
:1007A000FF0C4CF4E06C1CEA11541DBF1CEA1355FD
:1007B00094EA0C0F95EA0C0F00F0A7F8A4EB0504DF
:1007C00081EA030E52EA03354FEA013100F08880D6
:1007D0004FEA03334FF0805545EA131343EA12639F
:1007E0004FEA022245EA111545EA10654FEA002654
:1007F0000EF000419D4208BF964244F1FD0404F50D
:10080000407402D25B084FEA3202B61A65EB030568
:100810005B084FEA32024FF480104FF4002CB6EB25
:10082000020E75EB030E22BFB61A754640EA0C00A5
:100830005B084FEA3202B6EB020E75EB030E22BFE5
:10084000B61A754640EA5C005B084FEA3202B6EB26
:10085000020E75EB030E22BFB61A754640EA9C00E5
:100860005B084FEA3202B6EB020E75EB030E22BFB5
:10087000B61A754640EADC0055EA060E18D04FEA73
:10088000051545EA16754FEA06164FEAC30343EA13
:1008900052734FEAC2025FEA1C1CC0D111F4801FE0
:1008A0000BD141EA00014FF000004FF0004CB6E7D9
:1008B00011F4801F04BF01430020B4F1FD0C88BF78
:1008C000BCF5E06F3FF6AFAEB5EB030C04BFB6EB83
:1008D000020C5FEA500C50F1000041EB045170BD76
:1008E0000EF0004E4EEA113114EB5C04C2BFD4EBA3
:1008F0000C0541EA045170BD41F480114FF0000E27
:10090000013C90E645EA060E8DE60CEA135594EAA2
:100910000C0F08BF95EA0C0F3FF43BAF94EA0C0FA5
:100920000AD150EA01347FF434AF95EA0C0F7FF41A
:1009300025AF104619462CE795EA0C0F06D152EA6E
:1009400003353FF4FDAE1046194622E750EA410652
:1009500018BF52EA43067FF4C5AE50EA41047FF463
:100960000DAF52EA43057FF4EBAE12E74FF0FF3CC8
:1009700006E000BF4FF0010C02E000BF4FF0010C99
:100980004DF804CD4FEA410C7FEA6C5C4FEA430C12
:1009900018BF7FEA6C5C1BD001B050EA410C0CBF61
:1009A00052EA430C91EA030F02BF90EA020F0020C3
:1009B000704710F1000F91EA030F58BF994208BF2A
:1009C00090422CBFD8176FEAE37040F001007047E7
:1009D0004FEA410C7FEA6C5C02D150EA013C07D13E
:1009E0004FEA430C7FEA6C5CD6D152EA033CD3D089
:1009F0005DF8040B704700BF8446104662468C4683
:100A00001946634600E000BF01B5FFF7B7FF0028B5
:100A100048BF10F1000F01BD4DF808EDFFF7F4FFDE
:100A20000CBF012000205DF808FB00BF4DF808ED69
:100A3000FFF7EAFF34BF012000205DF808FB00BF8C
:100A40004DF808EDFFF7E0FF94BF012000205DF8AE
:100A500008FB00BF4DF808EDFFF7CEFF94BF012063
:100A600000205DF808FB00BF4DF808EDFFF7C4FF5C
:100A700034BF012000205DF808FB00BF4FEA4102AF
:100A8000B2F1E04324BFB3F5001CDCF1FE5C0DD9EC
:100A900001F0004C4FEAC0024CEA5070B2F1004F36
:100AA00040EB830008BF20F00100704711F0804F39
:100AB00021D113F13872BCBF01F00040704741F4FE
:100AC00080114FEA5252C2F11802C2F1200C10FA02
:100AD0000CF320FA02F018BF40F001004FEAC123E6
:100AE0004FEAD32303FA0CFC40EA0C0023FA02F38A
:100AF0004FEA4303CCE77FEA625307D150EA013360
:100B00001EBF4FF0FE4040F44000704701F000402F
:100B100040F0FE4040F40000704700BF10B50446AE
:100B2000074B1868074BA3FB0030800900F098FBC7
:100B3000002221464FF0FF3000F052FB002010BD94
:100B400088010020D34D621008B5032000F036FB69
:100B50000020FFF7E3FF04F0ABF9002008BD000020
:100B6000024A136801331360704700BFEC0700208E
:100B7000014B1868704700BFEC07002030B583B008
:100B800000230193002800F0CB800446836D13B34B
:100B900023689A6812F0005F05D09A6822F020421C
:100BA00022F03F029A602268936813F0805F1FD1A1
:100BB000936823F0104323F03F0343F08053936086
:100BC000584B1B68584AA2FB0323DB0C03EB83033F
:100BD0005A00019209E004F0B3F90023E36584F8B8
:100BE0005430D5E7019B013B0193019B002BF9D1C8
:100BF00023689A6812F0805F64D1A26D42F01002FF
:100C0000A265E26D42F00102E2650120A26D12F0E0
:100C1000100F7ED19A6812F0040F7AD1A26D22F4DF
:100C2000817242F00202A2659A6802F00302012A70
:100C30004AD063683D498A6822F47C1213438B6072
:100C4000E269A36B43EA4233E2681343A2681343A9
:100C5000626A43EA0243012A3BD0E26A22B102F40B
:100C60007072216B0A4313432168CD68304A2A40D1
:100C70001343CB602268936813F00C0F13D1A16962
:100C8000636B5B0043EA8131D36823F4804323F034
:100C900002030B43D360E36B012B1FD0226813695F
:100CA00023F0010313612369012B29D02268136B00
:100CB00023F00F031363A36D23F0030343F0010339
:100CC000A3652BE00020A1E71B6813F0010FB7D14B
:100CD000AFE7A26A013A43EA4243BEE721680B69E3
:100CE00023F4FF6323F00403226C656C2A43A56C94
:100CF0002A43E56C2A43134343F001030B61D2E717
:100D000021680B6B23F00F03226A013A13430B6334
:100D1000D1E7A36D43F01003A365012003B030BDFC
:100D20000120FBE78801002083DE1B430003045001
:100D300007C0F0FFF0B583B00022019290F8542074
:100D4000012A00F033820346012280F85420026811
:100D5000926812F0040F40F01F824A68052A08D8F2
:100D6000023A032A5CD8DFE802F0025154570C2201
:100D70004A601D684C680868303504F440764FF4CA
:100D8000407292FAA2F2B2FA82F2D64055F82620C8
:100D900004F01F041F27A74022EA0702C0F3846063
:100DA000A040024345F826201A68906810F00C0F06
:100DB00039D01C68A26802F00302012A00F0C98041
:100DC0000A68CD68D4F8B000C2F3120620EA060023
:100DD00005F02006BE4DB5402A40C2F31202024380
:100DE000C4F8B020C868BB4A904200F0B8800A68D6
:100DF000B9498A4200F05581B8498A4200F06281BF
:100E0000B7498A4200F072810020CAE112224A608A
:100E1000AFE718224A60ACE74FF480724A60A8E757
:100E200006224A60A5E708688C68143200F0007753
:100E30004FF0007595FAA5F5B5FA85F5EF4052F833
:100E4000275000F0F87C4FF0F87090FAA0F6B6FA50
:100E500086F62CFA06F64FF0070E0EFA06F625EA8D
:100E6000060590FAA0F0B0FA80F02CFA00F0844069
:100E70002C4342F8274048691C68E268C2F3C1026B
:100E8000520000FA02F20D69042D0ED00E68603493
:100E900054F825709348384006F0F8463243104322
:100EA00040F0004044F8250083E7206EC0F38465DD
:100EB0000A68C2F3120666BBC2F3846295422DD063
:100EC0001C68606EC0F384650A68C2F312064EBBEC
:100ED000C2F3846295422AD01C68A06EC0F3846578
:100EE0000A68C2F3120636BBC2F38462954227D069
:100EF0001C68E06EC0F384650A68C2F312061EBB6C
:100F0000C2F3846295427FF454AF20F00040E06663
:100F10004FE792FAA2F2B2FA82F2CFE720F0004055
:100F20002066CDE792FAA2F2B2FA82F2D2E720F07E
:100F300000406066D0E792FAA2F2B2FA82F2D5E7F8
:100F400020F00040A066D3E792FAA2F2B2FA82F251
:100F5000D8E7226812F0010F7FF449AF30E71C6830
:100F60000A68C2F31205002D48D1C2F38460013033
:100F700009288CBF00200120002861D0002D47D116
:100F8000C2F3846001308006002D48D1C2F384662C
:100F9000771C0126BE403043002D48D1C2F3846245
:100FA000013202EB4202120502438D68143402F052
:100FB000007C4FF0007090FAA0F0B0FA80F02CFAAC
:100FC00000FC54F82C6002F0F8724FF0F87090FAC0
:100FD000A0F7B7FA87F722FA07F74FF0070E0EFAD5
:100FE00007F726EA070690FAA0F0B0FA80F022FA96
:100FF00000F08540354344F82C50F8E692FAA2F010
:10100000B0FA80F0013009288CBF00200120B3E73E
:1010100092FAA2F0B0FA80F001308006B4E792FABA
:10102000A2F6B6FA86F6771C0126BE40B3E792FA1E
:10103000A2F2B2FA82F2013202EB42021205B3E7E7
:10104000ADB9C2F3846001308006BDB9C2F38466D5
:10105000771C0126BE403043C5B9C2F3846202EB5F
:1010600042021B3A120542F0007202439DE792FAD7
:10107000A2F0B0FA80F001308006E6E792FAA2F61C
:10108000B6FA86F6771C0126BE40E4E792FAA2F291
:10109000B2FA82F202EB42021B3A120542F00072EF
:1010A000E3E71149896811F4000F7FF4A5AE0A49FE
:1010B0008A4222D009498A4248D009498A4258D0F6
:1010C00000206EE00849896811F0807FEFD097E634
:1010D000FFFF070000007F40000052C7000084CBE4
:1010E0000100008000F0FF030003045030498968CC
:1010F00011F4800FDBD0002053E019682D4A914293
:1011000001D000204DE02A498A6802F0E07242F4E2
:101110000002886820F0E07002438A60264A126864
:10112000A1F14E61A1F50221A1F27D41A1FB0212C4
:10113000D20CC2EB0212D100019102E0019A013AF5
:101140000192019A002AF9D100202AE01968194A6F
:10115000914201D0002024E015498A6802F0E07233
:1011600042F08072886820F0E07002438A600020BC
:1011700017E019680F4A914201D0002011E00C4994
:101180008A6802F0E07242F48002886820F0E07021
:1011900002438A60002004E0826D42F020028265F2
:1011A0000120002283F8542003B0F0BD0220FBE7A9
:1011B000000304500000045088010020074AD3684F
:1011C00023F4E0631B041B0C000200F4E0601843EE
:1011D00040F0BF6040F40030D060704700ED00E0A8
:1011E00030B4174BDB68C3F30223C3F10704042CAC
:1011F00028BF04241D1D062D18D9033B4FF0FF35D1
:1012000005FA04F421EA0401994005FA03F322EAFD
:101210000303194300280BDB0901C9B200F1604048
:1012200000F5614080F8001330BC70470023E5E70B
:1012300000F00F000901C9B2024B1954F4E700BFD6
:1012400000ED00E014ED00E000F01F024009012372
:101250009340024A42F82030704700BF00E100E0AE
:101260000138B0F1807F0AD2064B5860064AF0215F
:1012700082F823100020986007221A60704701202E
:10128000704700BF10E000E000ED00E0042805D04A
:10129000054A136823F0040313607047024A136879
:1012A00043F004031360704710E000E0704708B596
:1012B000FFF7FCFF08BD70B4446C04F01C05066C1D
:1012C0000124AC407460046863608368102B05D00F
:1012D000036899600368DA6070BC704703689A60BD
:1012E0000368D960F8E70000002869D010B403460D
:1012F0000168344A914245D8334A0A443349A1FB34
:101300000212120992004264314A0264022283F8F6
:1013100025201868016821F4FF4121F070019A68C6
:10132000DC6822431C6922435C6922439C69224396
:10133000DC6922431C6A22430A4302609A68B2F5C0
:10134000804F15D0196C224A914226D0214A11684B
:10135000586C00F01C040F20A04021EA000111602D
:10136000116858685C6C04F01C04A04001431160D3
:101370000020D863012283F8252083F824005DF83B
:10138000044B7047144A0A441049A1FB0212120987
:1013900092004264114A0264B8E7A8321168586C9E
:1013A00000F01C040F20A04021EA00011160116828
:1013B00058685C6C04F01C04A04001431160D7E73E
:1013C0000120704707040240F8FFFDBFCDCCCCCC14
:1013D00000000240A8040240F8FBFDBF00040240E8
:1013E00038B590F82440012C33D0012480F82440F3
:1013F00090F82540E4B2012C04D0002380F824307A
:10140000022038BD0446022084F825000020E06355
:101410002568286820F0010028602046FFF74BFF70
:10142000236B5BB12268136843F00E0313602268DC
:10143000136843F0010313600020E2E72268136899
:1014400023F0040313602268136843F00A03136057
:10145000EDE70220D5E738B5036C19680468256804
:10146000436C03F01C0304229A400A4215D015F085
:10147000040F12D0236813F0200F03D1236823F048
:1014800004032360436C03F01C02016C04239340AB
:101490004B60036B03B1984738BD02229A400A4261
:1014A0001CD015F0020F19D0236813F0200F06D1BD
:1014B000236823F00A032360012380F82530436C5E
:1014C00003F01C02016C022393404B60002380F860
:1014D0002430C36A002BDFD09847DDE7082202FAE8
:1014E00003F30B42D8D015F0080FD5D0236823F0B2
:1014F0000E032360436C03F01C03016C012202FA0B
:1015000003F34B60C26380F82520002380F8243069
:10151000436B002BC0D09847BEE7000010B4054CC9
:10152000616941F001016161026043605DF8044B53
:10153000704700BF00200240084A536943F48023EB
:10154000536172B6402351F8042B40F8042B013B41
:1015500013F0FF03F7D162B6704700BF00200240CE
:10156000094B5B69002B01DB00207047064B074AE3
:101570009A6002F188329A605B69002B01DB0020DF
:1015800070470120704700BF0020024023016745DB
:1015900038B50446FFF7ECFA05461F4B1B6913F4F8
:1015A000803F09D0B4F1FF3FF7D0FFF7E1FA401BCD
:1015B000A042F2D3032029E0174A136923F07F43A6
:1015C00023F47D0323F4705323F00503926902F0A2
:1015D0000042134311D011494A681A434A6013F07C
:1015E000404203D00C49886902438A6133F040438A
:1015F0000DD0094A1361012008E0074B1B6913F065
:10160000010F06D0044B01221A61002038BD0120D1
:10161000FCE70020FAE700BF0020024000000020A5
:101620002DE9F041284C2478012C4AD098461746E1
:101630000D460446244B01221A704CF25030FFF73D
:10164000A7FF064608BB204B00225A601F4B1B68B1
:1016500013F4806F1FD01D4A136823F48063136056
:10166000194B02221A77D4B1631E012B1ED9002414
:101670004CF25030FFF78CFF064624B1134A5369F1
:1016800023EA0404546100F047F80F4B00221A705B
:101690003046BDE8F0810C4B00221A77E3E73A466A
:1016A00043462846FFF73AFF0124E1E7394628463A
:1016B000FFF742FF022C01D00024D9E74FF4802429
:1016C000D6E70226E4E700BF000000200020024029
:1016D00010F0010F04D0054A536943F0040353612D
:1016E000024A536943F4803353617047002002403B
:1016F000084B5A6922F4FF62C00000F4FF60024305
:101700005A615A6942F002025A615A6942F48032BF
:101710005A61704700200240144B1B7FDBB2012B43
:1017200001D0032B0CD1124A116841F40061116001
:10173000116821F400611160116841F400711160B9
:10174000023BDBB2012B03D9084B00221A7770470A
:10175000074B1A6842F480521A601A6822F48052C9
:101760001A601A6842F480621A60EDE700000020F7
:1017700000200240F8B53B4B1B78012B6FD00E4682
:101780000446384B01221A704CF25030FFF700FF2C
:10179000074600285ED1334B00225A60324B1B684B
:1017A00013F4007F33D0304B1A6822F400721A60B1
:1017B0001B6813F4806F26D02B4A136823F48063D0
:1017C0001360284B03221A772368012B31D04FF086
:1017D000FF333360A568A368E2681344AB4237D98E
:1017E00061682846FFF784FF4CF25030FFF7D0FEC7
:1017F0001D4A536923F4FF6323F002035361074634
:1018000028BB0135E7E7174B01221A77DCE7164BB7
:101810001B6813F4806F08D0134A136823F48063A5
:101820001360104B02221A77CEE70E4B00221A7774
:10183000CAE76068FFF74CFF4CF25030FFF7A8FE94
:101840000746094A536923F00403536100E03560F9
:10185000FFF762FF034B00221A703846F8BD0227DB
:10186000FBE700BF0000002000200240F0B482B07F
:1018700000236FE0866805EA060CCE68BE4046EAA3
:101880000C068660466826EA04044E68C6F3001615
:101890009E4026434660C46825408C68BC402C436B
:1018A000C4604C6814F0805F53D04C4C256E45F0FA
:1018B00001052566246E04F001040194019C9D0835
:1018C000AE1C474C54F8267003F00304A6000F2406
:1018D000B44027EA0407B0F1904F77D0414CA042C2
:1018E00076D004F58064A0426ED00724B4403C4317
:1018F00002353B4E46F825403B4C2568D44304EA6C
:1019000005064F6817F4803F01D042EA0506364DC0
:101910002E606D6804EA05064F6817F4003F01D099
:1019200042EA0506304D6E60AD6804EA05064F6870
:1019300017F4801F01D042EA05062B4DAE60ED681A
:101940002C404E6816F4001F01D042EA0504264AD6
:10195000D46001330A6832FA03F43BD001249C407E
:101960002240F6D04D68022D01D0122D10D1DE0894
:10197000083650F826C003F00705AF000F25BD401C
:101980002CEA050C0D69BD4045EA0C0540F82650CF
:1019900006685F000325BD40ED4305EA060C4E686E
:1019A00006F00306BE4046EA0C0606604E6806F1E5
:1019B000FF3CBCF1010F7FF65DAF112E3FF45AAF33
:1019C000122E7FF468AF55E702248FE700248DE7DD
:1019D00001248BE702B0F0BC704700BF001002404A
:1019E0000000014000040048000401400AB981627F
:1019F000704781617047704708B5054B5B690342CA
:101A000000D108BD024B5861FFF7F5FFF9E700BFB1
:101A100000040140024B186800F4C060704700BF2A
:101A200000700040B0F5007F0FD0204B1B6803F41E
:101A3000C063B3F5806F37D01C4A136823F4C063CA
:101A400043F48063136000207047184B1B6803F455
:101A5000C063B3F5007F25D0144A136823F4C06334
:101A600043F400731360124B1B6802F1467202F5D7
:101A70005B3202F28322A2FB03239A0C322303FB84
:101A800002F300E0013B23B1084A526912F4806F6F
:101A9000F8D1064B5B6913F4806F01D100207047C9
:101AA00003207047002070470020704700700040FE
:101AB0008801002030B583B00546204B9B6D13F0A4
:101AC000805F0BD0FFF7A6FFB0F5007F17D0802D09
:101AD0001FD82DD0702D2DD000211BE0174CA36DE9
:101AE00043F08053A365A36D03F080530193019BE2
:101AF000FFF790FFA36D23F08053A365E4E7802DEB
:101B000003D9A02D03D9022104E0002102E0012124
:101B100000E003210A4A136823F007030B43136014
:101B2000136803F007038B4206D0012003B030BDD9
:101B30000221EFE70121EDE70020F7E70010024066
:101B4000002002403B4B9B6813F00C0F1AD0394B1E
:101B50009B6803F00C030C2B0ED0364B9B6803F0F4
:101B60000C03042B2FD0334B9B6803F00C03082B82
:101B70002CD00020014618E02E4BDB6803F0030355
:101B8000012BEAD12B4B1B6813F0080F14D1294B02
:101B9000D3F89430C3F30323274A52F82310254B7C
:101BA0009B6813F00C0F0CD00020224A936803F0BE
:101BB0000C030C2B0DD070471E4B1B68C3F3031393
:101BC000EAE70846F1E71D480021EEE71C4800213E
:101BD000EBE71346D26802F00302DB68C3F302139B
:101BE0000133022A0AD0032A1AD0B1FBF3F3114AB7
:101BF000D068C0F3062000FB03F008E00F48B0FBFC
:101C0000F3F30C4AD068C0F3062000FB03F0094B45
:101C1000DB68C3F3416301335B00B0FBF3F0CAE759
:101C20000748B0FBF3F3034AD068C0F3062000FB7B
:101C300003F0ECE700100240F85300080024F40021
:101C400000127A00002800F0D78270B582B00446F6
:101C5000036813F0100F3FD0974B9B6813F00C0FE5
:101C600040F09280944B1B6813F0020F03D08369FD
:101C7000002B00F0C382206A8F4B1B6813F0080F03
:101C800062D08D4B1B6803F0F003984263D9FFF7D5
:101C900011FF002840F0B482874B1A6842F0080216
:101CA0001A601A6822F0F002216A0A431A605A6820
:101CB00022F47F42E16942EA01225A60FFF742FFC3
:101CC0007D4B9B68C3F303137C4AD35CD8407C4BA9
:101CD00018600020FEF722FF236813F0010F00F0C8
:101CE000A180754B9B6803F00C03082B00F09180DA
:101CF000714B9B6803F00C030C2B00F0838063682E
:101D0000B3F5803F00F0B580B3F5A02F00F0B780A9
:101D1000694B1A6822F480321A601A6822F4802211
:101D20001A606368002B00F0B780FEF721FF0546BC
:101D3000614B1B6813F4003F74D1FEF719FF401B81
:101D40006428F5D9032062E25B4BD3F894301B0979
:101D500003F0F00399E7584B1A6842F008021A6042
:101D60001A6822F0F002216A0A431A605A6822F4C3
:101D70007F42E16942EA01225A60206AFFF79AFE37
:101D800000289BD0012042E2836933B34A4A13689A
:101D900043F001031360FEF7EBFE0546464B1B685C
:101DA00013F0020F06D1FEF7E3FE401B0228F5D91F
:101DB00003202CE2404B1A6842F008021A601A68AD
:101DC00022F0F002216A0A431A605A6822F47F4224
:101DD000E16942EA01225A607EE7374A136823F03C
:101DE00001031360FEF7C4FE0546334B1B6813F076
:101DF000020F3FF471AFFEF7BBFE401B0228F4D97F
:101E0000032004E22C4BDB6803F00303032B7FF475
:101E100076AF294B1B6813F4003F03D06368002B97
:101E200000F0F081236813F0020F62D0224B9B6810
:101E300003F00C03042B4BD01F4B9B6803F00C03E7
:101E40000C2B3FD0E368002B79D01B4A136843F476
:101E500080731360FEF78CFE0546174B1B6813F466
:101E6000806F63D1FEF784FE401B0228F5D9032062
:101E7000CDE1114A136843F48033136051E703F155
:101E80008043A3F53C331A6842F480221A601A6832
:101E900042F480321A6044E7FEF76AFE0546064BBC
:101EA0001B6813F4003FBDD0FEF762FE401B6428A0
:101EB000F5D90320ABE100BF001002402854000810
:101EC00088010020B14BDB6803F00303022BB9D17A
:101ED000AE4B1B6813F4806F03D0E368002B00F057
:101EE0009381AA4A536823F0F853216943EA0163B6
:101EF0005360236813F0080F4CD063699BB3A34A67
:101F0000D2F8943043F00103C2F89430FEF730FE6B
:101F100005469E4BD3F8943013F0020F3AD1FEF7EA
:101F200027FE401B0228F4D9032070E1974A53682A
:101F300023F0F853216943EA01635360D9E7934AD8
:101F4000136823F480731360FEF712FE05468F4B6F
:101F50001B6813F4806FCCD0FEF70AFE401B0228EA
:101F6000F5D9032053E1894AD2F8943023F00103D4
:101F7000C2F89430FEF7FCFD0546844BD3F894304C
:101F800013F0020F06D0FEF7F3FD401B0228F4D930
:101F900003203CE1236813F0040F7AD07B4B9B6D48
:101FA00013F0805F36D1794B9A6D42F080529A657A
:101FB0009B6D03F080530193019B0125744B1B68BB
:101FC00013F4807F28D0A368012B39D0052B3FD094
:101FD0006E4BD3F8902022F00102C3F89020D3F882
:101FE000902022F00402C3F89020A368002B3DD07B
:101FF000FEF7BEFD0646654BD3F8903013F0020F96
:1020000046D1FEF7B5FD801B41F288339842F2D9E4
:102010000320FCE00025D1E75D4A136843F4807398
:102020001360FEF7A5FD0646594B1B6813F4807F2D
:10203000C9D1FEF79DFD801B0228F5D90320E6E0FB
:10204000524AD2F8903043F00103C2F89030CCE706
:102050004E4BD3F8902042F00402C3F89020D3F8FE
:10206000902042F00102C3F89020BEE7FEF780FD09
:102070000646464BD3F8903013F0020F08D0FEF717
:1020800077FD801B41F288339842F2D90320BEE0ED
:10209000E5B9236813F0200F35D0636AE3B13B4AFA
:1020A000D2F8983043F00103C2F89830FEF760FD93
:1020B0000546364BD3F8983013F0020F23D1FEF7C4
:1020C00057FD401B0228F4D90320A0E02F4A936D4E
:1020D00023F080539365DCE72C4AD2F8983023F044
:1020E0000103C2F89830FEF743FD0546274BD3F8AD
:1020F000983013F0020F06D0FEF73AFD401B02287D
:10210000F4D9032083E0A36A002B7FD01F4A926892
:1021100002F00C020C2A7CD0022B23D01B4B1A6835
:1021200022F080721A601B6813F0006F04D1174A06
:10213000D36823F00303D360144AD36823F0887371
:1021400023F48033D360FEF713FD04460F4B1B6866
:1021500013F0007F4ED0FEF70BFD001B0228F5D9CF
:10216000032054E0094A136823F080731360FEF7DC
:10217000FFFC0546054B1B6813F0007F0AD0FEF7F5
:10218000F7FC401B0228F5D9032040E00010024074
:1021900000700040236B5A1E636B1B0243EA02135C
:1021A000E26A1343E26B5208013A43EA4253226C5B
:1021B0005208013A43EA4263A26B43EAC263164AF9
:1021C000D360136843F080731360D36843F0807367
:1021D000D360FEF7CDFC04460F4B1B6813F0007F65
:1021E00006D1FEF7C5FC001B0228F5D903200EE03E
:1021F00000200CE000200AE001207047012006E0EA
:10220000012004E0012002E0012000E0002002B0F3
:1022100070BD0120FBE700BF00100240002800F065
:10222000998070B504464D4B1B6803F007038B4241
:102230000CD24A4A136823F007030B431360136858
:1022400003F007038B4201D0012070BD0D462368C7
:1022500013F0010F39D06368032B09D0022B26D06D
:1022600063BB3F4A126812F0020F06D10120ECE76F
:102270003B4A126812F0007F6ED039498A6822F01A
:10228000030213438B60FEF773FC0646344B9B68D6
:1022900003F00C036268B3EB820F16D0FEF768FC04
:1022A000801B41F288339842F0D90320CDE72C4AB5
:1022B000126812F4003FE0D10120C6E7284A1268F4
:1022C00012F4806FD9D10120BFE7236813F0020F09
:1022D00006D0234A936823F0F003A1680B43936070
:1022E0001E4B1B6803F00703AB420CD91B4A136853
:1022F00023F007032B431360136803F00703AB427B
:1023000001D00120A1E7236813F0040F06D0144A7E
:10231000936823F4E063E1680B439360236813F050
:10232000080F07D00E4A936823F46053216943EAEB
:10233000C1039360FFF706FC094B9B68C3F30313CB
:10234000084AD35CD840084B18600020FEF7E6FB33
:1023500000207AE701207047012076E70020024044
:10236000001002402854000888010020014B186822
:10237000704700BF8801002008B5FFF7F7FF044B46
:102380009B68C3F3C223034AD35CD84008BD00BF97
:102390000010024038540008F8B5594BDB6813F0C0
:1023A000030F18D0564BDB6803F003030268934217
:1023B00002D001252846F8BD002A00F09F80504B2E
:1023C000DB68C3F3021301334268934201D0012555
:1023D000F0E700251AE00368022B58D0032B5DD0EC
:1023E000012B01D001250FE0454A126812F0020FBF
:1023F00060D0434DEA6822F073024468013C43EA2E
:1024000004131343EB600025002DD3D10F4604467F
:102410003B4A136823F080631360FEF7A9FB06466E
:10242000374B1B6813F0006F05D0FEF7A1FB801B34
:102430000228F5D90325002DBCD1002F3CD130490D
:102440000B6923F0784323F4FE43A068E268D206C8
:1024500042EA002213430B61294A136843F0806368
:102460001360FEF785FB0646254B1B6813F0006FD3
:1024700005D1FEF77DFB801B0228F5D90325002D31
:1024800098D11F4A1369A1690B43136192E71C4A53
:10249000126812F4806FACD10125B5E7184A1268B2
:1024A00012F4003FA5D1164A126812F4802FA0D171
:1024B0000125A9E70125A7E7012F0FD010480269E0
:1024C00022F0C06222F4FE42A16863695B08013B0E
:1024D0005B0643EA012313430361BDE70848026931
:1024E00022F4C00222F4FE42A16823695B08013B8A
:1024F0005B0543EA012313430361ADE7012559E777
:10250000001002402DE9F04182B00446036813F444
:10251000006F26D0C36BB3F5000F06D0B3F5400FA4
:102520001DD09BB1012637461DE0AE4AD36843F467
:102530008033D3600027AB4AD2F8883023F44003BD
:10254000E16B0B43C2F8883000260CE00021043018
:10255000FFF722FF07460028EDD0064603E00027DC
:10256000E9E700263746236813F4003F6BD09D4B04
:102570009B6D13F0805F4CD19A4B9A6D42F0805264
:102580009A659B6D03F080530193019B4FF0010806
:10259000954A136843F480731360FEF7E9FA054621
:1025A000914B1B6813F4807F05D1FEF7E1FA401BC5
:1025B0000228F5D90327002F40D18A4BD3F8903059
:1025C00013F4407315D0226D9A4212D0854AD2F886
:1025D000903023F44073D2F8901041F48031C2F867
:1025E0009010D2F8901021F48031C2F89010C2F807
:1025F000903013F0010F0FD1002F40F0C980794ABD
:10260000D2F8903023F44073216D0B43C2F8903020
:1026100015E04FF00008BBE7FEF7AAFA0546714B3C
:10262000D3F8903013F0020FE6D1FEF7A1FA401B69
:1026300041F288339842F2D90327DDE73E46B8F1EC
:10264000000F40F0A780236813F0010F08D0654AFF
:10265000D2F8883023F00303216A0B43C2F8883094
:10266000236813F0020F08D05E4AD2F8883023F0B6
:102670000C03616A0B43C2F88830236813F0200F03
:1026800008D0584AD2F8883023F44063A16A0B433B
:10269000C2F88830236813F4007F08D0514AD2F87A
:1026A000883023F44023616B0B43C2F888302368E1
:1026B00013F4806F08D04B4AD2F8883023F44013CB
:1026C000A16B0B43C2F88830236813F0400F08D089
:1026D000444AD2F8883023F44053E16A0B43C2F8ED
:1026E0008830236813F4807F08D03E4AD2F88830BF
:1026F00023F44033216B0B43C2F88830236813F472
:10270000005F0FD0374AD2F8883023F04063216C45
:102710000B43C2F88830236CB3F1006F40D0B3F1A3
:10272000806F42D0236813F4802F0FD02D4AD2F847
:10273000883023F04063616C0B43C2F88830636CCF
:10274000B3F1006F39D0B3F1806F3BD0236813F43D
:10275000804F0CD0234AD2F8883023F04053A16C2C
:102760000B43C2F88830A36CB3F1805F32D023688A
:1027700013F4004F08D01B4AD2F8883023F080436E
:10278000E16C0B43C2F88830304602B0BDE8F081FE
:102790003E4654E7134A936D23F08053936552E706
:1027A000D36843F48013D360BCE70121201DFFF7F9
:1027B000F3FD0028B6D00646B4E7D36843F480138F
:1027C000D360C3E70121201DFFF7E6FD0028BDD03F
:1027D0000646BBE70221201DFFF7DEFD0028C6D01C
:1027E0000646C4E70010024000700040F8B50546F8
:1027F0000F4616461C4639E02CB1FEF7B9F9069B88
:10280000C01AA04232D32A68536823F0E003536011
:102810006B68B3F5827F0BD0AB6AB3F5005F14D061
:10282000012385F85D30002385F85C30032025E026
:10283000AB68B3F5004F02D0B3F5806FECD12A68D6
:10284000136823F040031360E6E72A68136823F453
:10285000005313602A68136843F400531360DFE7E2
:102860000123B34209D0B4F1FF3FC5D12B689B6867
:1028700037EA0303F4D00023F3E70020F8BDF0B5F6
:1028800083B007460C4615461E4602E0B6F1FF3FF0
:1028900010D13A6893682340AB423FD0B4F5C06F83
:1028A000F4D1002DF2D1137BDBB28DF807309DF807
:1028B0000730EBE72EB1FEF75BF9089BC01AB04278
:1028C000E7D33A68536823F0E00353607B68B3F5BD
:1028D000827F0BD0BB6AB3F5005F14D0012387F869
:1028E0005D30002387F85C30032018E0BB68B3F547
:1028F000004F02D0B3F5806FECD13A68136823F033
:1029000040031360E6E73A68136823F4005313604A
:102910003A68136843F400531360DFE7002003B004
:10292000F0BD70B582B004460D46164600920B46C7
:1029300000224FF4C051FFF7A2FFB8B900962B4612
:10294000002280212046FFF751FFB8B900962B46A0
:1029500000224FF4C0612046FFF791FF034650B1BB
:10296000236E43F020032366032304E0236E43F029
:10297000200323660323184602B070BD236E43F084
:10298000200323660323F6E770B582B004460D46A4
:1029900016464368B3F5827F0FD000962B4600227F
:1029A00080212046FFF722FF034698B96268B2F5FE
:1029B000827F15D0184602B070BD8368B3F5004F12
:1029C00002D0B3F5806FE8D12268136823F040038A
:1029D0001360E2E7236E43F0200323660323E9E755
:1029E000A268B2F5004F02D0B2F5806FE2D1009636
:1029F0002B4600224FF4C0612046FFF740FF0346FC
:102A00000028D7D0236E43F0200323660323D1E7A9
:102A1000002853D010B504460023836290F85D303F
:102A2000002B40D0022384F85D302268136823F025
:102A300040031360E368B3F5E06F39D90022B3F5C2
:102A4000706F04D0B3F5E06F01D00021A162216B5B
:102A500021B9B3F5E06F2ED9022323636368A1681F
:102A60000B4321690B4361690B43A16901F40071B8
:102A70000B43E1690B43216A0B43A06A21680343BE
:102A80000B60638B03F00403616A0B43616B0B43C0
:102A9000E1680B43216813434B600020206601234B
:102AA00084F85D3010BD80F85C3002F091FAB9E72F
:102AB0004FF48052C3E701232363CFE7012070471F
:102AC0002DE9F8439946089D90F85C30012B00F001
:102AD0003F8104460F461646012380F85C30FEF71E
:102AE00047F8804694F85D30DBB26268012B14D061
:102AF000B2F5827F09D00223012284F85D200022F2
:102B000084F85C201846BDE8F883A268002A40F0EB
:102B10001D81042B01D00223EEE794F85D30DBB277
:102B2000042B02D0052384F85D300023236626643D
:102B3000A4F84690A4F84490A763A4F83E90A4F8A3
:102B40003C90E3642365E368B3F5E06F04D8B4F820
:102B500046309BB2012B22D92268536823F480535C
:102B6000536023681A6812F0400F03D11A6842F0CC
:102B700040021A60E368B3F5E06F54D963681BB193
:102B8000E38F9BB2012B07D1236837F8022BDA6061
:102B9000E38F013B9BB2E3874FF001091CE0226801
:102BA000536843F480535360DBE7B4F846309BB27C
:102BB0007BB123689A6812F0010F0AD0DB6826F80F
:102BC000023BB4F84630013B9BB2A4F846304FF0CC
:102BD0000109B5F1FF3F1ED1E38F9BB22BB9B4F8C9
:102BE00046309BB2002B00F0A480B9F1000FDCD07E
:102BF000E38F9BB2002BD8D023689A6812F0020FA3
:102C0000D3D037F8022BDA60E38F013B9BB2E38726
:102C10004FF00009C9E7FDF7ABFFA0EB0800A842A1
:102C2000DAD3032368E763681BB1E38F9BB2012B00
:102C30000BD1E38F9BB2012B0AD9236837F8022B03
:102C4000DA60E38F023B9BB2E3874FF0010932E089
:102C500023683A781A73E38F013B9BB2E38701370D
:102C6000F3E73A781A73E38F013B9BB2E3870137AE
:102C70004FF00009B4F846309BB2CBB123689A6894
:102C800012F0010F14D0B4F8462092B2012A3CD9B8
:102C9000DB6826F8023BB4F84630023B9BB2A4F84E
:102CA0004630B4F846309BB2012B26D94FF00109CB
:102CB000B5F1FF3F35D1E38F9BB223B9B4F846306D
:102CC0009BB2002B35D0B9F1000FD3D0E38F9BB26C
:102CD000002BCFD023689A6812F0020FCAD0E28F7F
:102CE00092B2012ABDD937F8022BDA60E38F023B9A
:102CF0009BB2E3874FF00009BCE72268536843F4B6
:102D0000805353604FF00109D2E71B7B3370B4F856
:102D10004630013B9BB2A4F8463001364FF0010922
:102D2000C6E7FDF725FFA0EB0800A842C3D30323A5
:102D3000E2E6424629462046FFF7F3FD0346002817
:102D40003FF4DAAE202323660123D5E60223D3E63F
:102D50000223D7E638B590F85C40012C00F0DE8005
:102D60000446012084F85C0094F85D00C0B26568F8
:102D700001280FD0B5F5827F04D00220002384F80B
:102D80005C3038BDA568002D40F0C080042801D01B
:102D90000220F3E7002900F0BB80002A00F0BA808F
:102DA000002B00F0B98094F85D00C0B2042802D076
:102DB000052084F85D0000202066A163A387E387D7
:102DC0002264A4F84430A4F84630E0642065226808
:102DD000536823F4C0435360E368B3F5E06F47D909
:102DE0002268536823F48053536094F85D30DBB25B
:102DF000042B00F08480A36D494A1A63A36D494AED
:102E0000DA62A36D484A5A63A36D00259D63216869
:102E1000B4F84630226C0C31A06DFEF7E1FA22685E
:102E2000536843F001035360636D1D63636DDD629E
:102E3000636D5D63636D9D632268E38F0C32A16BEC
:102E4000606DFEF7CDFA23681A6812F0400F03D1C7
:102E50001A6842F040021A602268536843F0200367
:102E600053602268536843F002035360002085E7F3
:102E70002268536843F480535360636D9B69B3F5D4
:102E8000806F19D0A36D9B69B3F5806FADD12268B7
:102E9000536823F480535360B4F8463013F0010FA5
:102EA00021D12268536823F400535360B4F84630AC
:102EB0005B08A4F8463098E7A38F13F0010F08D100
:102EC0002268536823F480435360E38F5B08E387F1
:102ED000D8E72268536843F480435360E38F5B086C
:102EE0000133E387CEE72268536843F4005353600D
:102EF000B4F846305B080133A4F8463075E7A36D9B
:102F00000A4A1A63A36D0A4ADA627AE7022035E7B1
:102F1000012033E7012031E701202FE7022030E7CD
:102F2000472F0008CB2F0008512F00083B2F000827
:102F3000732F000870477047704708B5806AFFF725
:102F4000FBFF08BD704708B5806AFFF7FBFF08BDAF
:102F500008B5806A0268536823F003035360036E68
:102F600043F010030366012380F85D3001F04AFD51
:102F700008BD38B50546846AFDF7FAFD2B681B6865
:102F800013F0200F19D12268536823F020035360F7
:102F90002268536823F003035360024664212046ED
:102FA000FFF7F2FC08B1202323660023A4F8463083
:102FB000012384F85D30236E1BB92046FFF7BAFF6A
:102FC00038BD204601F01EFDFAE738B50546846A93
:102FD000FDF7CEFD2B681B6813F0200F1CD1226873
:102FE000536823F020035360024664212046FFF714
:102FF00098FC18B1236E43F02003236622685368BF
:1030000023F0030353600023E387A4F84630012331
:1030100084F85D30236E1BB92046FFF78CFF38BD66
:10302000204601F0EFFCFAE730B4036A23F0010315
:103030000362036A4468826922F4803222F07302D8
:103040000D682A4323F002038D682B43144DA842D8
:1030500007D005F5A055A84203D005F58065A84224
:1030600005D123F00803CD682B4323F004030C4D56
:10307000A84207D005F5A055A84203D005F5806504
:10308000A84205D124F440754C692C438D692C432A
:10309000446082614A684263036230BC704700BF8B
:1030A000002C014030B4036A23F480730362036A86
:1030B0004268C46924F4803424F073040D682C43FE
:1030C00023F400738D6843EA0523124DA84219D0FA
:1030D000104DA84207D005F5A055A84203D005F52C
:1030E0008065A84207D122F440524D6942EA051298
:1030F0008D6942EA05124260C4614A68C263036294
:1031000030BC704723F40063CD6843EA052323F401
:103110008063DDE7002C014030B4036A23F4805360
:103120000362026A4468C36923F0807323F4E643B0
:103130000D6843EA052322F400528D6842EA053205
:103140000B4DA84207D005F5A055A84203D005F5C0
:103150008065A84204D124F480444D6944EA851472
:103160004460C3614B680364026230BC704700BFB7
:10317000002C014030B4036A23F480330362036AF5
:103180004468426D22F4803222F070020D682A43B6
:1031900023F400338D6843EA05430B4DA84207D062
:1031A00005F5A055A84203D005F58065A84204D1D5
:1031B00024F480344D6944EA0524446042654A6839
:1031C0008265036230BC7047002C014030B4036A52
:1031D00023F480130362026A4468436D23F0807312
:1031E00023F4E0430D6843EA052322F400128D68BE
:1031F00042EA05520B4DA84207D005F5A055A8425A
:1032000003D005F58065A84204D124F480244D69DB
:1032100044EA8524446043654B68C365026230BC60
:10322000704700BF002C014010B4036A046A24F008
:1032300001040462846924F0F00444EA021223F0D9
:103240000A030B43826103625DF8044B704710B4BC
:10325000036A23F0100303628469036A24F4704450
:1032600044EA023223F0A00343EA011382610362BD
:103270005DF8044B7047836823F07003194341F0F5
:103280000701816070470000022380F83D3002682A
:103290009168094B0B40062B09D09168064B0B40F7
:1032A000B3F5803F03D0136843F00103136001239B
:1032B00080F83D30002070470700010070477047DC
:1032C000704770477047704710B5044603681A6925
:1032D00012F0020F11D0DA6812F0020F0DD06FF069
:1032E00002021A610123037703689B6913F0030F3D
:1032F00079D0FFF7E6FF0023237723681A6912F0DD
:10330000040F12D0DA6812F0040F0ED06FF004022E
:103310001A610223237723689B6913F4407F68D0E6
:103320002046FFF7CEFF0023237723681A6912F0A7
:10333000080F12D0DA6812F0080F0ED06FF00802F2
:103340001A61042323772368DB6913F0030F57D036
:103350002046FFF7B6FF0023237723681A6912F08F
:10336000100F12D0DA6812F0100F0ED06FF01002AA
:103370001A61082323772368DB6913F4407F46D062
:103380002046FFF79EFF0023237723681A6912F077
:10339000010F03D0DA6812F0010F3FD123681A69D8
:1033A00012F0800F03D0DA6812F0800F3DD123684D
:1033B0001A6912F4807F03D0DA6812F0800F3BD1D3
:1033C00023681A6912F0400F03D0DA6812F0400F38
:1033D00039D123681A6912F0200F03D0DA6812F08D
:1033E000200F37D110BDFFF76BFF2046FFF76AFFB4
:1033F00081E72046FFF764FF2046FFF763FF92E76F
:103400002046FFF75DFF2046FFF75CFFA3E720465D
:10341000FFF756FF2046FFF755FFB4E76FF00102B4
:103420001A612046FFF74BFFB8E76FF080021A6180
:10343000204600F090FABAE76FF480721A612046D5
:1034400000F08AFABCE76FF040021A612046FFF7ED
:103450003AFFBEE76FF020021A61204600F07AFAC8
:10346000C0E7000003681A4A904202D0B0F1804FD2
:1034700003D123F070034A681343154A90420AD0DF
:10348000B0F1804F07D002F5A052904203D002F570
:103490008062904203D123F44073CA68134323F03F
:1034A00080034A69134303608B68C3620B688362BD
:1034B000074B984207D003F5A053984203D003F579
:1034C0008063984201D10B69036301234361704714
:1034D000002C0140A8B110B5044690F83D305BB116
:1034E000022384F83D30211D2068FFF7BBFF012334
:1034F00084F83D30002010BD80F83C3001F03CFEE7
:10350000EEE701207047A8B110B5044690F83D30B1
:103510005BB1022384F83D30211D2068FFF7A2FF34
:10352000012384F83D30002010BD80F83C30FFF7C7
:10353000C5FEEEE70120704730B4036A23F01003A4
:103540000362036A4468826922F0807222F4E642D0
:103550000D6842EA052223F020038D6843EA051333
:10356000124DA84219D0114DA84207D005F5A0551B
:10357000A84203D005F58065A84207D124F4406431
:103580004D6944EA85048D6944EA8504446082619A
:103590004A688263036230BC704723F08003CD68C1
:1035A00043EA051323F04003DDE700BF002C014090
:1035B00038B590F83C30012B00F092800D4604465F
:1035C000012380F83C30022380F83D30142A1ED8B5
:1035D000DFE802F00B1D1D1D241D1D1D381D1D1DC6
:1035E0004B1D1D1D5F1D1D1D72000068FFF71CFD9A
:1035F0002268936943F0080393612268936923F07A
:10360000040393612268936929690B439361012341
:1036100084F83D30002084F83C0038BD0068FFF796
:103620008BFF2268936943F4006393612268936976
:1036300023F48063936122689369296943EA012333
:103640009361E4E70068FFF72DFD2268D36943F03A
:103650000803D3612268D36923F00403D36122688D
:10366000D36929690B43D361D1E70068FFF754FDA3
:103670002268D36943F40063D3612268D36923F4D9
:103680008063D3612268D369296943EA0123D36146
:10369000BDE70068FFF76EFD2268536D43F0080335
:1036A00053652268536D23F0040353652268536DFC
:1036B00029690B435365AAE70068FFF787FD226875
:1036C000536D43F4006353652268536D23F48063A4
:1036D00053652268536D296943EA0123536596E7D0
:1036E00002209AE710B4846824F47F4442EA03235A
:1036F0000B43234383605DF8044B704790F83C30E4
:10370000012B73D010B50446012380F83C3002230E
:1037100080F83D3002689068354B034093600B6839
:10372000402B59D010D9702B3CD01BD8502B49D0EE
:10373000602B30D1CA6849682068FFF788FD602196
:103740002068FFF798FD26E0102B06D004D9202B27
:1037500003D0302B01D01EE0EBB919462068FFF7EB
:103760008AFD18E0B3F5805F0ED0B3F5005F12D18B
:10377000CB684A6889682068FFF7B4FF22689368BD
:1037800043F48043936006E02268936823F4803317
:1037900023F007039360012384F83D30002084F870
:1037A0003C0010BDCB684A6889682068FFF79AFF23
:1037B0002268936823F4803323F0770343F0770380
:1037C0009360E8E7CA6849682068FFF72DFD50213B
:1037D0002068FFF750FDDEE7CA6849682068FFF7F8
:1037E00023FD40212068FFF746FDD4E70220704703
:1037F0008800FEFF10B401F01F01012303FA01F459
:10380000036A23EA04030362036A8A4013430362E0
:103810005DF8044B7047000010B5044601220068B3
:10382000FFF7E8FF2368104A934207D002F5A05241
:10383000934203D002F58062934203D15A6C42F462
:1038400000425A6422689168084B0B40062B09D04D
:103850009168064B0B40B3F5803F03D0136843F0EB
:1038600001031360002010BD002C0140070001007F
:1038700090F83C30012B25D030B4012380F83C3047
:10388000022380F83D300268536895680E4CA242CE
:1038900013D023F070030C68234325F0800489685B
:1038A0002143536003689960012380F83D30002371
:1038B00080F83C30184630BC704723F470034C68E5
:1038C0002343E6E702207047002C014090F83C308B
:1038D000012B3BD010B4012380F83C30CB6823F49B
:1038E00040738A68134323F480634A68134323F4C4
:1038F00000630A68134323F480530A69134323F4D3
:1039000000534A69134323F480438A6A134323F420
:1039100070238A6943EA024302680D4CA24207D031
:103920005364002380F83C3018465DF8044B704720
:1039300023F470034C6A43EA045323F08073CC6988
:10394000234323F00073096A0B43E9E70220704721
:10395000002C014070477047704730B4002202606D
:103960004260826000240025C0E90445A0F8482098
:1039700030BC7047F8B5064617468161A6F8482066
:1039800000F11C044FF090450FCD0FC40FCD0FC4B4
:1039900095E8070084E807000122394606F11C007B
:1039A000FEF724F8F8BD00002DE9704384B0064608
:1039B000002404AD45F8044D224602214FF090400A
:1039C000FEF714F80A23009301232A462146B06922
:1039D000FFF776F8244B9B6813F0800FFAD1BDF8FF
:1039E0000C40012202214FF09040FDF7FFFF240917
:1039F00000230F2B01DC0133FBE77068FCF73AFD75
:103A00008046894616A3D3E90023FDF72DF838B187
:103A10002046FCF72FFD0022144BFDF711F898B952
:103A20000022124B40464946FDF700F878B1204687
:103A3000FCF720FD0AA3D3E90023FDF70BF830B112
:103A40003368013B336002E03368013333607460F4
:103A5000A0B2002104B0BDE8708300BFAFF30080C6
:103A60000000000000ACAA4000300140005085403A
:103A700010B50446FFF798FF236800EB033010BD34
:103A8000B4EEE00AF1EE10FA20DA70EEC06AD0ED82
:103A90000E7A86EEA76AD0ED097A66EE277AC0ED37
:103AA000097A90ED127A27EE067A80ED127AB7EE57
:103AB000007AF4EEC77AF1EE10FA08DD80ED097AAB
:103AC00080ED0C0AC0ED0D0AC0ED0E6A7047F5EEF0
:103AD000C07AF1EE10FAF3D500234362F0E7B4EEBA
:103AE000E00AF1EE10FA1ADA30EEC07AD0ED116A7F
:103AF000C7EE267AD0ED0B6A67EEA67AC0ED0B7A98
:103B0000F7EE006AF4EEE67AF1EE10FA08DDC0EDA9
:103B10000B6A80ED0F0AC0ED100A80ED117A704734
:103B2000F5EEC07AF1EE10FAF3D50023C362F0E7A8
:103B3000B5EE400AF1EE10FA5FD0F5EEC00AF1EEF4
:103B400010FA5AD4B5EEC01AF1EE10FA55D4D0B529
:103B50002DED028BF0EE418AB0EE408A044684EDF2
:103B6000040AC0ED050A84ED061AF5EE400AF1EEEE
:103B700010FA2ED010EE900AFCF78EFC02460B468F
:103B800000201E49FCF70AFE06460F46206DFCF792
:103B900083FC02460B4630463946FCF7D5FCFCF761
:103BA0006DFF07EE900A637833B1F5EE407AF1EEDF
:103BB00010FA11D10023A36484ED018AC4ED027AC6
:103BC00094ED147AC8EE877AC4ED037ABDEC028BCB
:103BD000D0BDDFED0B7AE6E7D4ED016A94ED027A11
:103BE00066EE876A27EE887A86EE876A94ED127A07
:103BF00027EE067A84ED127ADEE770470000F03F88
:103C00000000000010B52DED068B0446B0EE409A82
:103C1000F0EE609AB0EE41AAF0EE61AA9FED1B8A29
:103C200080ED168A80ED178A002303704370DFED64
:103C3000188AF0EE680AB0EE480AFFF721FFF0EEAE
:103C4000680AB0EE480A2046FFF749FFC4ED14AAFF
:103C5000B0EE4A1AF0EE690AB0EE490A2046FFF7C4
:103C600067FF84ED078A84ED088A84ED098A84ED74
:103C70000A8A84ED0B8A84ED128A84ED138A84ED1E
:103C8000158A2046BDEC068B10BD00BF0000000069
:103C9000333353400378D3B9D0ED157A90ED0F7AD2
:103CA00077EEC77AD0ED116A87EEA67A80ED0B7AAF
:103CB000D0ED087A90ED0C7A77EEC77AD0ED0E6AE7
:103CC00087EEA67A80ED097A002383647047D0EDF1
:103CD000137A90ED0F7A77EEC77AD0ED116A87EEFE
:103CE000A67AE3E738B505460C4609B1437823B117
:103CF000003418BF01246C7038BDFFF7CBFFF7E725
:103D000080ED070A704780ED080A704780ED130ABE
:103D10000123037070470000D0ED084AD0ED0C7A03
:103D200034EEE77AD0ED0E6A87EE266AB7EE007AB7
:103D3000B4EEC76AF1EE10FA79DDB7EE006A90EDE5
:103D4000077A37EE677AC7EE267AB7EE007AF4EE96
:103D5000C77AF1EE10FA72DDF7EE007A77EEC66AF6
:103D6000D0ED0B7AB7EE007AF4EEC77AF1EE10FAE6
:103D700004DBF5EEC06AF1EE10FA0ADCF5EEC07A6B
:103D8000F1EE10FA63D9D0ED127A77EEA67AC0ED93
:103D9000127AD0ED095A76EE657A90ED145AC7EE94
:103DA000853A0378002B58D0D0ED137A90ED0F7A36
:103DB00077EEC77A90ED117A87EE874A90ED017A17
:103DC000D0ED027A90ED123A67EE837A77EEA67A1A
:103DD000D0ED036A66EEA36A77EEE67A67EE277A9D
:103DE00077EE847AC0ED0A7AF5EEC07AF1EE10FA39
:103DF00036D4B7EE007AF4EEC77AF1EE10FA01DDB0
:103E000080ED0A7A75EEE45AC5EE857AC0ED177A30
:103E100090ED0A0A80ED0B0A80ED096AD0ED117A67
:103E200020EE270AD0ED0F7A30EE270A7047B5EE64
:103E3000C06AF1EE10FA82D59FED0B6A7FE7F5EECE
:103E4000C07AF1EE10FA89D5DFED077A86E7F5EE54
:103E5000C06AF1EE10FA96D59BE79FED034AADE7F5
:103E600000238362CEE700BF0000000000238B42E6
:103E700011D230B41A18D2E90045B5F1FF3F08BF9E
:103E8000B4F1FF3F05D108338B42F3D30B2030BC94
:103E900070470A20FBE70B207047000030B4254B29
:103EA000D3E9004503F50063D3E90023012807D0D7
:103EB000F0B954EA050135D0134335D11E481BE053
:103EC00052EA030108D1002D08BFB4F1AA3F01D086
:103ED000194811E017480FE054EA05011FD1002BE3
:103EE00008BFB2F1AA3F01D0124805E0124803E032
:103EF000022803D04FF0FF3030BC7047B5F1FF3FD0
:103F000008BFB4F1FF3F12D0B3F1FF3F08BFB2F1D9
:103F1000FF3F02D04FF0FF30EEE70748ECE74FF0ED
:103F2000FF30E9E70348E7E74FF0FF30E4E70148F7
:103F3000E2E700BF00E8030800F0030800F1784260
:103F4000084B18684FF6FF73984208D0064B03EAF7
:103F50008023B2FBF3F003FB1020C00A70474FF43C
:103F60008013F6E7E075FF1F00FC3F00012070475B
:103F7000F8B506460F460120FFF790FFB0F1FF3F6E
:103F800022D00823B3F5006F20D21918D1E90045DB
:103F9000B5F1FF3F08BFB4F1FF3F01D00833F1E7AF
:103FA0003B0C3A04B4B2002544EA020645EA030792
:103FB0003B04320443EA16430020FDF731FB08B905
:103FC0000020F8BD0520FCE70620FAE70C20F8E702
:103FD00000B587B000230293012305930490039159
:103FE00001A902A8FDF7C6FB18B9002007B05DF8CB
:103FF00004FB0320FAE7000008B54FF40061144801
:10400000FFF734FF0A280FD00022002310490020B8
:10401000FDF706FBC8B94FF400610E48FFF726FF15
:104020000A2809D0002011E001217D20FFF7D0FFF0
:104030000028E9D0032009E001217E20FFF7C8FF16
:1040400008B9002002E0032000E0052008BD00BF01
:1040500000E8030800F003082DE9F84F8046894680
:104060000020FFF71BFFB0F1FF3F25D04FF4FF61A9
:1040700000E00839072921D90B18D3E90023B3F14F
:10408000FF3F08BFB2F1FF3FF3D00D4C002504EA1B
:10409000020A05EA030B54465D461FFA88FA4FEA06
:1040A0001A474FEA0A46BD4208BFB442E1D1C9F8F7
:1040B00000300020BDE8F88F0620FBE70720F9E775
:1040C0000000FFFF2DE9F04182B005468846144606
:1040D0000020FFF7E3FEB0F1FF3F4BD00646C4B926
:1040E0000220FFF7DBFE0746B0F1FF3F44D044B9A2
:1040F0004FF0AA32002301460020FDF791FA002874
:104100003CD141462846FFF733FF002838D1002430
:1041100002E00120E5E701349F2C15D81A4B33F853
:104120001400A842F7D001A9FFF796FF0028F2D1AA
:104130000199154B33F81400FFF71AFF0028EAD055
:10414000052002B0BDE8F0813046FFF7F7FE0446D7
:104150003046FFF70BFF81B22046FFF739FF88B9E1
:10416000002200233946FDF75BFA08B90020E8E792
:104170000520E6E70620E4E70620E2E70520E0E781
:104180000520DEE70320DCE72C00002000239F2B26
:1041900009D8664A32F813104FF6FF72914200F0C8
:1041A000C0800133F3E710B5614BD3E900236149C7
:1041B000D1E90001002B08BFB2F1AA3F49D0B3F109
:1041C000FF3F08BFB2F1FF3F08D0134378D0FFF79D
:1041D00013FF002840F0A380002010BD50EA010327
:1041E00009D0002908BFB0F1AA3F16D0FFF704FF9D
:1041F00068BB0020F1E74FF400614D48FFF736FE41
:104200000A2801D00020E8E701217D20FFF7E0FE29
:10421000002800F088800320DFE74FF40061444865
:10422000FFF724FE0A2808D000220023414900207D
:10423000FDF7F6F948B90020CFE701217D20FFF70F
:10424000C7FE0028F0D00320C7E70520C5E70420FB
:10425000C3E750EA01030AD0B1F1FF3F08BFB0F154
:10426000FF3F11D0FFF7C8FE40BB0020B5E7324B3F
:10427000D3E9003401222146180CFFF723FF08B9C7
:104280000020AAE70920A8E74FF400612948FFF7BA
:10429000EDFD0A2808D00022002325490020FDF763
:1042A000BFF948B9002098E701217E20FFF790FE72
:1042B0000028F0D0032090E705208EE704208CE74B
:1042C00050EA010310D0B1F1FF3F08BFB0F1FF3F4A
:1042D00011D01A4BD3E9003401222146180CFFF704
:1042E000F1FED0B9002078E7FFF786FE08B900207C
:1042F00073E7042071E74FF400610E48FFF7B6FD45
:104300000A2801D0002068E701217E20FFF760FE27
:1043100008B9002061E703205FE709205DE704207A
:104320005BE708207047002057E700BF2C00002003
:1043300000E8030800F0030808E8030808F0030891
:1043400038B504460D46FFF713FE0C2800D038BDE3
:10435000002229462046FFF7B5FEF8E710B588B0E1
:10436000194BDA6C42F00102DA64DA6C02F00102F5
:104370000192019ADA6C42F00202DA64DB6C03F01B
:1043800002030293029B002241F203414FF090404E
:10439000FDF72CFB41F20343039301230493002414
:1043A0000594069303A94FF09040FDF75FFA1023A0
:1043B0000393064B0493059403A94FF09040FDF737
:1043C00055FA08B010BD00BF0010024000001110E7
:1043D00000B583B00E4B9A6C42F002029A649B6C5B
:1043E00003F002030193019B002211463820FCF7E1
:1043F000F7FE3820FCF728FF002211463920FCF791
:10440000EFFE3920FCF720FF03B05DF804FB00BF8E
:104410000010024008B5002211460A20FCF7E0FE19
:104420000A20FCF711FF002203213720FCF7D8FEF9
:104430003720FCF709FF08BD38B52DED028BDFED05
:10444000288A284CF0EE680A9FED270A2046FFF7DD
:1044500017FBF7EE000ABFEE000A2046FFF73FFB0E
:104460009FED228AB0EE480A2046FFF74FFC01215B
:104470002046FFF737FC04F16005DFED1D0A9FEDD4
:104480001D0A2846FFF7FCFAF7EE000AB0EE600AB4
:104490002846FFF724FBB0EE480A2846FFF736FC13
:1044A00001212846FFF71EFCC034F0EE680A9FED9C
:1044B000120A2046FFF7E4FAF7EE000ABFEE000A00
:1044C0002046FFF70CFBB0EE480A2046FFF71EFC23
:1044D00001212046FFF706FCBDEC028B38BD00BF72
:1044E00000008045B0010020000080C5CDCC4C3DCF
:1044F000E17AD445E17AD4C500000000012800D05B
:1045000070474FF6FF739942FAD110B52DED028B2B
:104510009FED198A194CDFED1A1AB0EE481AF0EE29
:10452000480AB7EE000A2046FFF76CFBDFED158A5C
:10453000F0EE681AB0EE481AF0EE480AB7EE000A3C
:1045400004F16000FFF75EFBF0EE681AB0EE481A67
:10455000F0EE480AB7EE000A04F1C000FFF752FB84
:1045600004F59070FFF7F9F9FDF706FFC4F8700144
:10457000BDEC028B10BD00BF00000000B0010020A8
:104580006F1283390AD7233BFEE7000000B58FB0D6
:1045900029484FF08043C0F874310023C0F87831C7
:1045A000C0F87C31C0F88031C0F88431C0F88C315B
:1045B00000F5BA70FEF78EFF28BB0EA94FF48053AA
:1045C00041F8103D1D48FFF799F808BB1B48FEF75E
:1045D0009AFF10BB00230793099307A91748FFF719
:1045E00047F9F8B9602300930022019202920492E5
:1045F00069461248FEF7DCFFC8B9104800F0F2FD2A
:104600000FB05DF804FB4FF4C8710D48FFF7BCFF15
:104610004FF4CB710A48FFF7B7FF40F29B110848EF
:10462000FFF7B2FF4FF4D1710548FFF7ADFF40F23D
:10463000AB110348FFF7A8FFB001002024030020BE
:104640004054000800B59BB03B483C4BC0F8B43127
:104650000023C0F8B831C0F8BC31C0F8C031C0F890
:10466000C431C0F8C831C0F8CC3100F5DA70FEF7BB
:1046700031FF002842D11AA94FF4805341F8103D70
:104680002F48FFF73BF800283DD12D48FEF73BFFB0
:1046900000283DD1002313931493159313A92848A0
:1046A000FFF7E6F8002838D160230C9300230D9320
:1046B0000E931093119312930C220CA92048FEF72D
:1046C00077FF00282ED100230193029303930493D4
:1046D00005934FF400520692079308934FF000722F
:1046E00009920A930B9301A91548FFF7EFF8F0B967
:1046F000134800F077FD1BB05DF804FB4FF4A37185
:104700001048FFF741FF4FF4A6710E48FFF73CFF3A
:1047100040F251110B48FFF737FF40F25911094899
:10472000FFF732FF4FF4B2710648FFF72DFF4FF449
:10473000BA710448FFF728FFB0010020002C0140A7
:10474000640300204054000808B51948194BC0F80C
:10475000F4314FF48273C0F8F8310023C0F8FC3113
:104760004FF47062C0F80022C0F80432C0F808327A
:104770004FF40072C0F80C22C0F81032C0F81432A6
:10478000C0F81832C0F81C320722C0F82022C0F846
:1047900024320823C0F8283200F5FA70FEF738F901
:1047A00000B908BD40F219110348FFF7EDFE00BF44
:1047B000B0010020003001404054000800B587B02F
:1047C0002248234BC0F858320023C0F85C32C0F8AE
:1047D0006032C0F86432C0F868320422C0F86C223B
:1047E000C0F87032C0F874320122C0F87822C0F8E4
:1047F0007C32C0F88022C0F88432C0F88832C0F819
:104800008C32C0F89032C0F8943200F51670FCF784
:10481000B5F990B90F4B009306230193002302933F
:104820007F22039204220492059369460A48FCF70A
:1048300081FA30B907B05DF804FBF3210748FFF7B0
:10484000A3FE40F201110548FFF79EFEB0010020D3
:10485000000004500080F03E08040020405400088E
:1048600000B585B01348144BC0F8C0320023C0F81F
:10487000C432C0F8C8324FF4FA62C0F8CC22C0F893
:10488000D83200F53070FEF725FE50B900230193B1
:10489000039301A90948FEF7EBFF30B905B05DF8B5
:1048A00004FBCD210648FFF76FFED4210448FFF733
:1048B0006BFE00BFB0010020001400407004002017
:1048C0004054000808B51648164BC0F800330023C2
:1048D000C0F80433C0F808334FF47062C0F80C23FA
:1048E000C0F81033C0F814334FF40072C0F8182326
:1048F000C0F82033C0F82433C0F828330722C0F8AA
:104900002C23C0F83033C0F8343300F54070FEF784
:104910007FF800B908BD4FF498710348FFF734FEE3
:10492000B0010020003C00404054000800B5ADB08C
:1049300010231B93012221920023229360232393AF
:104940000223259326922792282228920722299231
:104950002A932B931BA8FDF775F900283DD10F234F
:104960001693032317930023189319931A93042182
:1049700016A8FDF753FC002833D14FF48043019370
:104980004FF0805313930123029303931023049356
:10499000072305930223069307934FF08073089330
:1049A00001A8FDF7AFFD00BB4FF40070FDF73AF82A
:1049B000F8B9FDF7DBFC114BA3FB00308009FCF7D5
:1049C0004FFC0420FCF762FC002211464FF0FF3040
:1049D000FCF706FC2DB05DF804FB90210848FFF7BA
:1049E000D3FD9E210648FFF7CFFDAC210448FFF719
:1049F000CBFDB3210248FFF7C7FD00BFD34D6210C6
:104A00004054000808B54FF4BF710148FFF7BCFDE2
:104A10004054000838B54FF09042536923F0010329
:104A20005361504BD3F864338BB34E4BD3F864339C
:104A3000012B44D04B4BD3F86433022B52D0494B5B
:104A400093EDDA7AB5EEC07AF1EE10FA5DDD1A4632
:104A5000D3F8743100215963D2F87031424981FB97
:104A60000301DB17C3EB212307EE903AF8EEE77A58
:104A700067EE877AD2F8B431FCEEE77AC3ED107AAC
:104A80004FF09042536943F00103536138BD354CF8
:104A900004F590752846FEF7EBFF07EE900AB8EE96
:104AA000E70A2046FFF72FF92046FFF735F984ED96
:104AB000DA0A2846FEF7DCFF2C4B9880B5E7294C34
:104AC00004F59070FEF7D4FF07EE900AB8EEE70AFF
:104AD00004F16000FFF717F92046FFF71DF984ED98
:104AE000DA0AA7E71F4C04F59070FEF7C1FF07EE46
:104AF000900AB8EEE70A04F1C000FFF704F9204677
:104B0000FFF70AF984EDDA0A99E7B5EEC07AF1EE1B
:104B100010FA0DD4B5EE407AF1EE10FAB0D1114A88
:104B2000D2F8741100234B63D2F8B4211364A7E7C1
:104B30000C4AD2F870310C4981FB0301DB17C3EB3F
:104B4000212307EE903AF8EEE77A67EE677AD2F81B
:104B50007431FCEEE77AC3ED0D7AD2F8B43100225D
:104B60001A648DE7B00100201F85EB512000002062
:104B7000F8B5884C04F55B71874BD889FFF76CFA60
:104B8000D4F86C33002B00F09880824C04F55B77EE
:104B9000814D3946A889FFF75FFAD4F86C337F4E10
:104BA000A6FB03239B09A5F84C313946E889FFF79A
:104BB00053FAD4F86C33A6FB03239B0907EE903A13
:104BC000F8EE677AC5ED547A3946288AFFF744FA39
:104BD000D4F86C33A6FB03239B0907EE903AF8EE5A
:104BE000677AC4EDDC7A3946688AFFF735FAD4F87B
:104BF0006C33A6FB03239B0907EE903AF8EE677A25
:104C0000C4EDDD7A3946A88AFFF726FAD4F86C336A
:104C1000A6FB03239B0907EE903AF8EE677AC5EDF1
:104C2000557A3946E88AFFF717FAD4F86C33A6FBB1
:104C300003239B0907EE903AF8EE677AC4EDDE7A1B
:104C40003946288BFFF708FAD4F86C33A6FB032308
:104C50009B0907EE903AF8EE677AC4EDE17A39469F
:104C6000688BFFF7F9F9D4F86C33A6FB03239B0993
:104C700007EE903AF8EE677AC5ED567A3946A88B7A
:104C8000FFF7EAF9D4F86C33A6FB03239B0907EE80
:104C9000903AF8EE677AC4EDDF7A3946E88BFFF791
:104CA000DBF9D4F86C33A6FB0336B60907EE906A3D
:104CB000F8EE677AC4EDE07AF8BD374CB4F84C11E1
:104CC000A089FFF73DFBD4ED547AFCEEE77A17EEAE
:104CD000901A4FF47A7505FB01F1E089FFF730FB7C
:104CE0002C4ED6EDDC7AFCEEE77A17EE901A05FB37
:104CF00001F1208AFFF724FBD6EDDD7AFCEEE77A9E
:104D000017EE901A05FB01F1608AFFF719FBD4ED4D
:104D1000557AFCEEE77A17EE901A05FB01F1A08AAE
:104D2000FFF70EFBD6EDDE7AFCEEE77A17EE901A6F
:104D300005FB01F1E08AFFF703FBD6EDDE7AFCEE1E
:104D4000E77A17EE901A05FB01F1208BFFF7F8FACE
:104D5000D4ED567AFCEEE77A17EE901A05FB01F1D6
:104D6000608BFFF7EDFAD6EDDF7AFCEEE77A17EE0F
:104D7000901A05FB01F1A08BFFF7E2FAD6EDE07A7D
:104D8000FCEEE77A17EE901A05FB01F1E08BFFF7D6
:104D9000D7FA91E7B001002020000020D34D621027
:104DA00008B5FBF7D1FEFFF7C1FDFFF7D7FAFFF714
:104DB0000FFBFFF7EBFBFFF745FCFFF7C5FCFFF729
:104DC000FDFCFFF74DFDFFF77DFDFFF723FBFCF733
:104DD000C7FBFFF7DBF9FFF7CBFEFFF72DFB2C4DF1
:104DE00005F5BA742046FEF74FFA05F5DA70FEF7BE
:104DF0004BFA00212046FEF70FFD18B15C21254833
:104E0000FFF7C2FB0C212448FEF706FD18B1602114
:104E10002048FFF7B9FB4FF090435A6922F0020295
:104E20005A615A6942F480625A615A6922F4805286
:104E30005A61174C04F59075002204F5FA71284662
:104E4000FEF798FD9FED150A2046FEF759FFD4F8AE
:104E50007421D4F870314FF4487193FBF1F3D362AD
:104E6000C4F88031D4F8B421D362C4F8C0312846E4
:104E7000FEF7FEFD04F53070FEF706FAD4F8C032F6
:104E800001225A62DA6842F00102DA60FEE700BFEE
:104E9000B0010020405400086403002000000045D9
:104EA00008B54FF6FF710120FFF728FB08BD000091
:104EB00000B583B0214B1A6E42F001021A661A6ED9
:104EC00002F001020092009A9A6D42F080529A65B7
:104ED0009B6D03F080530193019B0320FCF76EF957
:104EE000002211466FF00B00FCF77AF90022114600
:104EF0006FF00A00FCF774F9002211466FF0090008
:104F0000FCF76EF9002211466FF00400FCF768F917
:104F1000002211466FF00300FCF762F900221146EF
:104F20006FF00100FCF75CF9002211464FF0FF30F2
:104F3000FCF756F903B05DF804FB00BF0010024017
:104F400002681E4B9A4200D0704730B587B00446C5
:104F500003F17043A3F5F833DA6C42F40052DA64DB
:104F6000DB6C03F400530093009B012301930B239C
:104F700002930025039501A91148FCF777FC11481D
:104F8000114B036045608560C560802303614FF469
:104F9000807343614FF480638361C5614FF40053B4
:104FA0000362FCF7A1F920B9064B23659C6207B0A8
:104FB00030BD7C210548FFF7E7FAF5E70000045013
:104FC000000400484005002008000240505400083A
:104FD00070B588B0044603685A4A934204D05A4ACE
:104FE000934257D008B070BD584B1A6E42F48052AD
:104FF0001A661B6E03F480530193019BE023039315
:1050000002230493002505950323069305230793A4
:1050100003A94FF09040FCF729FC4D484D4B03602D
:1050200001234360C56005614FF4807343614FF411
:1050300000638361C5614FF400530362FCF754F9C8
:10504000F0B9434BA3659C624348444B0360012382
:105050004360102383600023C360802202614FF409
:10506000807242614FF400628261C3614FF4005369
:105070000362FCF739F940B9374B63659C62B1E7CD
:10508000C5213748FFF780FADBE7D6213448FFF720
:105090007BFAF1E72D4B9A6D42F400429A659B6DC5
:1050A00003F400430293029B3823039302230493E7
:1050B00000250595032606960623079303A929488C
:1050C000FCF7D4FB2848294B036046608560C56027
:1050D000802303614FF4807343614FF480638361E5
:1050E000C5614FF440530362FCF7FEF8F0B91E4B64
:1050F000A3659C621E481F4B03600323436010237B
:1051000083600023C360802202614FF48072426199
:105110004FF480628261C3614FF440530362FCF735
:10512000E3F848B9124B63659C625BE74FF480710A
:105130000B48FFF729FADAE740F211110848FFF7A8
:1051400023FAEFE700300140003C0040001002402D
:10515000600600201C0002401806002030000240BB
:105160005054000800040048D00500200804024004
:10517000880500201C04024084B00368164A93424C
:1051800007D0B3F1804F0FD0144A934218D004B027
:105190007047134B1A6E42F400621A661B6E03F4DA
:1051A00000630193019BF2E703F504339A6D42F02B
:1051B00001029A659B6D03F001030293029BE6E7EF
:1051C000074B9A6D42F020029A659B6D03F0200315
:1051D0000393039BDBE700BF002C01400014004059
:1051E0000010024000B587B00368154A934205D00D
:1051F000B3F1804F13D007B05DF804FB4FF40063A8
:1052000001930223029300230393032304930123B6
:10521000059301A94FF09040FCF728FBEBE74FF412
:105220000043019302230293002303930323049377
:105230000123059301A94FF09040FCF717FBDAE733
:10524000002C01407047FEE7FEE7FEE7FEE77047EF
:105250007047704708B5FBF783FCFCF728F808BDDA
:1052600038B51020FCF7C8FB084D094C05232A4629
:1052700021460848FDF76EFD2B8823806B886380EC
:10528000EB88E3802B89238138BD00BF7C0100209F
:1052900020000020B004002008B50248FCF7DBF82D
:1052A00008BD00BF4005002008B50248FCF7D3F850
:1052B00008BD00BF6006002008B50248FCF7CBF827
:1052C00008BD00BF1806002008B50348FDF7FCFF25
:1052D000FFF7A0FB08BD00BF7004002008B502481E
:1052E000FCF7B9F808BD00BFD005002008B502489A
:1052F000FCF7B1F808BD00BF880500200F49D1F8C0
:10530000883043F47003C1F888300D4B1A6842F0BE
:1053100001021A60002098601A6822F0A85222F454
:1053200010221A604FF48052DA601A6822F4802248
:105330001A6098614FF000638B60704700ED00E0E9
:1053400000100240DFF834D0002103E00C4B5B5822
:10535000435004310B480C4B42189A42F6D30B4A87
:1053600002E0002342F8043B094B9A42F9D3FFF7CD
:10537000C5FF00F011F8FFF713FDFEE70000012064
:1053800080540008000000209001002090010020BF
:10539000F0070020FEE7000070B50D4E0D4CA41B79
:1053A000A4100025A54209D10B4E0C4C00F018F8B2
:1053B000A41BA4100025A54205D170BD56F82530C8
:1053C00098470135EEE756F8253098470135F2E762
:1053D0007054000870540008705400087854000895
:1053E000F8B500BFF8BC08BC9E467047F8B500BFD2
:0853F000F8BC08BC9E467047A2
:1053F800A0860100400D0300801A060000350C004D
:1054080040420F0080841E0000093D0000127A000F
:105418000024F40000366E010048E801006CDC024C
:10542800000000000000000001020304060708094C
:1054380000000000010203042E2E2F5372632F6D0B
:1054480061696E2E637070002E2E2F5372632F7356
:10545800746D33326C3478785F68616C5F6D73702B
:085468002E63000000000000AB
:08547000B5010008A14E00087F
:08547800910100080000000092
:10548000000000000000000000000000000000001C
:10549000010000000000000000000000000000000B
:1054A0000100020003000400050000005555666677
:1054B000777788889999AAAABBBBCCCCDDDDEEEEC4
:1054C00000000000000000000000000000000000DC
:1054D00000000000000000000000000000000000CC
:1054E00000000000000000000000000000000000BC
:1054F00000000000000000000000000000000000AC
:10550000000000000000000000000000000000009B
:10551000000000000000000000000000000000008B
:10552000000000000000000000000000000000007B
:10553000000000000000000000000000000000006B
:10554000000000000000000000000000000000005B
:10555000000000000000000000000000000000004B
:10556000000000000000000000000000000000003B
:10557000000000000000000000000000000000002B
:10558000000000000000000000000000000000001B
:10559000000000000000000000000000000000000B
:1055A00000000000000000000000000000000000FB
:1055B00000000000000000000000000000000000EB
:1055C00000000000000000000000000000000000DB
:1055D00000000000000000000000000000000000CB
:1055E00000000000000000000000000001000000BA
:1055F0000000803F0000803F0000803F010001006C
:10560000010001000100000000093D000000000051
:040000050800534557
:00000001FF
